:0E0000000C94950A0C94F91A0C940D1B0C9498
:10000E00C50A0C9400000C94670B0C9400000C9421
:10001E0000000C9400000C944E0B0C9400000C94F9
:10002E004D0B0C9400000C9400000C9400000C94EA
:10003E0000000C9400000C9400000C9400000C9432
:10004E0000000C940000CFEEECE5F9E5EDE8E520BC
:10005E00000000000000D0C5C6C8CC200000000083
:10006E00000000000000D1C5C7CECD20000000006A
:10007E00000000000000D3F1F22E2000000000006E
:10008E00000000000000CFE0F0E0ECE5F2F0FB2015
:10009E00000000000000C0C2C0D0C8C9200000008F
:1000AE00000000000000CDC0D1D2D0CEC9CAC02EF3
:1000BE002E2E00000000D3F1F22ED7E0F12E2000FC
:1000CE00000000000000D3F1F220CCE8ED2000008B
:1000DE00000000000000D3F1F22EE4E5EDFC2E202E
:1000EE00000000000000D3F1F220CCE5F12E20003C
:1000FE00000000000000D3F1F220C3CEC42E200079
:10010E00000000000000CFCECCC5D92E200000008C
:10011E00000000000000D3CB2ED220000000000013
:10012E00000000000000D3F1F22ED22000000000EB
:10013E00000000000000C2EEE420C2D52E20000018
:10014E00000000000000C2EEE420C2DBD52E00004D
:10015E00000000000000CAD0C0CD2000000000004A
:10016E00000000000000D3D1D22ECAD0C0CD2E2068
:10017E00000000000000C2C5CDD2C8CBDFD2CED069
:10018E00200000000000D3F1F22E20C2C5CDD22EE9
:10019E00200000000000C7C0D1CB2E2000000000C0
:1001AE00000000000000CDC0D1CED1200000000024
:1001BE00000000000000544120494E204D696E2081
:1001CE0000000000000054572053544F50200000F0
:1001DE000000000000005457204D696E2000000002
:1001EE000000000000005441204D696E2000000008
:1001FE00000000000000CFD0CEC3D0C5C22000004A
:10020E00000000000000C2D02EC8CDD22E2000006B
:10021E00000000000000CAD33D00000000000000F6
:10022E00000000000000CAC83D00000000000000F1
:10023E00000000000000CAC43D00000000000000E5
:10024E00000000000000D1EC2ECF2E3D000000007B
:10025E00000000000000D8EA2ECF2E3D0000000066
:10026E00000000000000D1EC2ED3EB2E3D0000006C
:10027E00000000000000D8EA2ED3EB2E3D00000057
:10028E00000000000000D1EC2EC2C2F53D000000BF
:10029E00000000000000D8EA2EC2C2F53D000000AA
:1002AE00000000000000D1EC2EC2C2FBF53D0000A4
:1002BE00000000000000D8EA2EC2C2FBF53D00008F
:1002CE00000000000000D1E5E7EEED3D000000006B
:1002DE00000000000000CFE0F0EEEBFC3D0000005F
:1002EE00000000000000D2E5F0ECEEE7E0F9E8F2E5
:1002FE00E02000000000C7E0ECE5F0E7E0EDE8E507
:10030E00200000000000D2E5ECEF2EE2EEE7E42E36
:10031E00E2F520000000D22EE2EEE7E42EE2FBF53D
:10032E002E2000000000D2E5ECEF2EE2EEE4FB20E2
:10033E00E2F520000000D22EE2EEE4FB20E2FBF517
:10034E002E0000000000CDE5F220F1E2FFE7E820EC
:10035E00000000000000CDE5F220F2E5F0EC2E42A8
:10036E00312000000000CDE5F220F2E5F0EC2E4247
:10037E00322000000000CDE5F220F2E5F0EC2E4236
:10038E00332000000000CDE5F220F2E5F0EC2E4225
:10039E00342000000000D4E8EBFCF2F02000000056
:1003AE000000000000001027E80364000A000100AE
:1003BE00001000011000010044535441434B454EC0
:1003CE00440048535441434B454E4400CFD3D1CA09
:1003DE00200D0A00CFEEE8F1EA20E2F1E5F520F279
:1003EE00E5F0ECEEECE5F2F0EEE220EDE020F8E8E0
:1003FE00EDE520312D576972652E20CDE0E9E4E55B
:10040E00EDEE3A2000256420F8F2F3EA0D0A00D151
:10041E00F2E0F0F220E8EDE8F6E8E0EBE8E7E0F6EF
:10042E00E8E820EFE5F0E8F4E5F0E8E82E2E2E0DF2
:10043E000A0041A042A1E045A3A4A5A64BA74D48A2
:10044E004FA8504354A9AA58E1ABACE2ADAEADAF44
:10045E00B0B161B2B3B4E365B6B7B8B9BABBBCBD9F
:10046E006FBE7063BF79E478E5C0C1E6C2C3C4C590
:10047E00C6C70000000000000100000000000000E0
:10048E00000000000000FFCD7F7F0A00000000008A
:10049E00B40064004006881330F8DC0598080000AC
:1004AE00000000000000000000000100000428957C
:1004BE000F7E030000720128C11A7E0300002E0178
:1004CE00281A177E030000FE0128E82A7E0300008A
:1004DE008A010000C8EDE8F6E8E0EBE8E7E0F6E8B0
:1004EE00FF20EAEDEEEFEEEA2E2E2E0D0A00D1F2EF
:1004FE00E0F0F220CDFCFEF2EEEDE020ECE5F2E0D5
:10050E00EBEEE8E7E4E5EBE8FF20CF325F312E209B
:10051E0025752E253032752E20CDE0E9E4E5EDEE81
:10052E0020257520F2E5F0ECEEECE5F2F0EEE22E91
:10053E000D0A00C7E0EFE8F1FC20E22045455052DD
:10054E004F4D20E7E0E2EEE4F1EAE8F520F3F1F2B8
:10055E00E0EDEEE2EEEA2E0D0A20CDE5EEEFEEE74F
:10056E00EDE0EDEDFBF520F2E5F0ECEEECE5F2F072
:10057E00EEE2203D2025750D0A00C7E0EFE8F1FC04
:10058E0020E220454550524F4D20F3F1F2E0EDEEC2
:10059E00E2EEEA20EFEE20F3ECEEEBF7E0EDE8FE14
:1005AE002E0D0A00C7E0EFE8F1FC20E22045455091
:1005BE00524F4D20257520EDEEE2FBF520F2E5F0D1
:1005CE00ECEEECE5F2F0EEE22E0D0A00D3F1F2E0E5
:1005DE00EDEEE2EAE020E2E5EDF2E8EBFFF2EEF01E
:1005EE00E02E2025752E20D3F1F2E0EDEEE2EAE0CA
:1005FE0020EAF0E0EDE0202575202E0D0A002D00FA
:10060E00C4EE20F1EBE5E4F3FEF9E5E3EE20E8E7D6
:10061E00ECE5F0E5EDE8FF20CFD3D1CA3A20257501
:10062E000D0A00C4EE20F1EBE5E4F3FEF9E5E3EE8E
:10063E0020E8E7ECE5F0E5EDE8FF20D1D2CECF3AA9
:10064E002025750D0A00CDE0E6E0F2E020EAEDEEA1
:10065E00EFEAE020CFD3D1CA2E2000C2EAEBFEF79C
:10066E00E5ED20F0E5E6E8EC20CFF0EEE3F0E5E294
:10067E002E204C494D4954203D2025642C20C2F09B
:10068E00E5ECFF20EFF0EEE3F0E5E2E0203D202583
:10069E00640D0A00C2EAEBFEF7E5ED20F0E5E6E8B0
:1006AE00EC20CFF3F1EA0D0A00D0E5E6E8EC20CF1E
:1006BE00F0EEE3F0E5E22E0D0A00D0E5E6E8EC20E0
:1006CE00CEF1F2E0EDEEE2EAE82E0D0A00D0E5E61C
:1006DE00E8EC20CFF3F1EA2E0D0A00CDE0E6E0F2D1
:1006EE00E020EAEDEEEFEAE020D1D2CECF2E2000D0
:1006FE0020D0E5E6E8EC20D1D2CECF2E0D0A00C2F6
:10070E00EAEBFEF7E5ED20F0E5E6E8EC20CEF1F2BF
:10071E00E0EDEEE2EAE80D0A00C0E2E0F0E8FF3AB2
:10072E002025730D0A00C0C2C0D0C8DF3A20257341
:10073E000D0A00CFD0C5C4D3CFD0C5C6C4C5CDC851
:10074E00C53A2025730D0A00D0E0E7EEE3F0E5E2AE
:10075E0020EAE0EBEEF0E8F4E5F0E03A2025642C38
:10076E0020D3E3EEEB20EAF0E0EDE020F0E0F1F74D
:10077E00E5F2EDFBE9203A25642C20D3E3EEEB20E5
:10078E00EAF0E0EDE020E8E7ECE5F0E5EDEDFBE981
:10079E00203A25642C20F3E3EEEB20EEE3F0E0EDBF
:1007AE00E8F7E5EDE8FF3A2025642C207420EEE111
:1007BE00F0E0F2EAE8203A256420200D0A00CEF59A
:1007CE00EBE0E6E4E5EDE8E520EAE0EBEEF0E8F458
:1007DE00E5F0E03A2025642C20D3E3EEEB20EAF09E
:1007EE00E0EDE020F0E0F1F7E5F2EDFBE9203A254F
:1007FE00642C20D3E3EEEB20EAF0E0EDE020E8E716
:10080E00ECE5F0E5EDEDFBE9203A25642C20F3E371
:10081E00EEEB20EEE3F0E0EDE8F7E5EDE8FF3A2051
:10082E0025642C207420EEE1F0E0F2EAE8203A256F
:10083E006420200D0A00CFEEE4E4E5F0E6E0EDE8FA
:10084E00E520EAE0EBEEF0E8F4E5F0E03A2025648E
:10085E002C2020D3E3EEEB20EAF0E0EDE020F0E0F8
:10086E00F1F7E5F2EDFBE9203A25642C20D3E3EE17
:10087E00EB20EAF0E0EDE020E8E7ECE5F0E5EDED69
:10088E00FBE9203A25642C20F3E3EEEB20EEE3F0B7
:10089E00E0EDE8F7E5EDE8FF3A2025642C20742022
:1008AE00EEE1F0E0F2EAE8203A256420200D0A009D
:1008BE00CFEEEDE8E6E5EDE8E520F1EAEEF0EEF15B
:1008CE00F2E820E2E5EDF2E8EBFFF2EEF0E020F0E8
:1008DE00E0F1F7E5F2EDEEE5203A2025642C20E874
:1008EE00E7ECE5F0E5EDEDEEE5203A2025642C2071
:1008FE00D1F7E5F2F7E8EA20F6E8EAEBEEE2203A85
:10090E0025642C20504F4D5F54203A2564200D0A4B
:10091E0000D3E2E5EBE8F7E5EDE8E520F1EAEEF0ED
:10092E00EEF1F2E820E2E5EDF2E8EBFFF2EEF0E0B8
:10093E0020F0E0F1F7E5F2EDE0FF3A2025642C20FF
:10094E00E8E7ECE5F0E5EDEDE0FF203A2025642C3C
:10095E0020D1F7E5F2F7E8EA20F6E8EAEBEEE2203E
:10096E003A25642C20C7E0E4E0EDEDE0FF20F1EA4B
:10097E00EEF0EEF1F2FC203A2564200D0A00D1EAE9
:10098E00EEF0EEF1F2FC20E2E5EDF2E8EBFFF2EE36
:10099E00F0E020F0E0F1F7E5F2EDE0FF3A2025641B
:1009AE002C20E8E7ECE5F0E5EDEDE0FF203A202520
:1009BE00642C20C7E0E4E0EDEDE0FF20F1EAEEF07C
:1009CE00EEF1F2FC3A2025642C20504F4D5F543A44
:1009DE002025642C205441505F414E474C455F4DBD
:1009EE00494E203D202564200D0A00D0E0E7EDEEB3
:1009FE00F1F2FC20F2E5ECEFE5F0E0F2F3F03A2054
:100A0E0025642C205441505F414E474C45203A25D9
:100A1E00642C2074696D655F696E746567726174AC
:100A2E00696F6E203A2564200D0A00253032753A22
:100A3E00253032753A253032752C2025642C202530
:100A4E00642C2025642C2025642C2025642C202544
:100A5E00642C2025642C2025642C2025642C202534
:100A6E00642C2025642C2025640D0A0044656C74CA
:100A7E006120287831303029203D2025642C2072C9
:100A8E006573756C74203D2025642C205441505F95
:100A9E00414E474C45203D2025642C2070546572F4
:100AAE006D203D2025642C20695465726D203D20FB
:100ABE0025642C20645465726D203D2025640D0A3A
:100ACE00002074252D75203D20256928252D692EA1
:100ADE00252D7529435B25303258253032583A255D
:100AEE003032785D25643A25643B2000D1D2CECFDA
:100AFE0020202000CFD0CEC3D0C5C200CED1D2C0D0
:100B0E00CDCEC200CFD3D1CA20202000C0E2E0F06B
:100B1E00E8FF2000253032753A253032753A2530FF
:100B2E00327520253032752E253032752020007416
:100B3E003D2563253032752E2530317543202573C2
:100B4E0000CDE5F220F2E5F0ECEEECE5F2F0EEE2AF
:100B5E0000D1EEF1F2EEFFEDE8E5207072696D5F07
:100B6E00706172205B25642062797465735D3A2032
:100B7E00002025640020255800C7E0E4E0ED204E5B
:100B8E00257520286E756D626572292C20EDE0F8B2
:100B9E00EBE8204E2575202869735F666F756E64CD
:100BAE00292C20F1E2EEE1EEE4EDFBE9204E257575
:100BBE00202869735F6E6577290D0A00D2E5F0EC87
:100BCE00EEECE5F2F0204E257520F1F3F9E5F1F2A9
:100BDE00E2F3E5F220EFEE20EFEEF0FFE4EAEEE2D4
:100BEE00EEECF320EDEEECE5F0F32025750D0A00AA
:100BFE00D1E2EEE1EEE4EDFBF520F2E5F0ECEEEC09
:100C0E00E5F2F0EEE220EDE5F20D0A00CDEEE2FBAC
:100C1E00E920544C203D2025645B253032785D2040
:100C2E00EFEE20EDEEECE5F0F32025750D0A00CF8A
:100C3E00F0EEE8EDE8F6E8E0EBE8E7E8F0EEE2E00B
:100C4E00EBE820F2E5F0ECEEECE5F2F0204E257547
:100C5E0020EFEE20EFEEF0FFE4EAEEE2EEECF32012
:100C6E00EDEEECE5F0F32025750D0A00CDE520EC58
:100C7E00EEE3F320EFF0EEE8EDE8F6E8E0EBE8E780
:100C8E00E8F0EEE2E0F2FC20EDEEE2FBE920F2E528
:100C9E00F0ECEEECE5F2F0204E25750D0A00C2FBED
:100CAE00EAEBFEF7E8F2E520EFE8F2E0EDE8E5200A
:100CBE00E820EFEEE4EAEBFEF7E8F2E520E2F1E5FC
:100CCE0020EEE1EEF0F3E4EEE2E0EDE8E50D0A00F1
:100CDE00CEF2EAEBFEF7E8F2E520E2F1E520F2E5EE
:100CEE00F0ECEEECE5F2F0FB2C20EAF0EEECE52079
:100CFE005B253032785D20E820EDE0E6ECE8F2E5A9
:100D0E0020EAEBE0E2E8F8F32053484946542D2759
:100D1E007E270D0AC2FBF5EEE420E8E720F0E5E6BB
:100D2E00E8ECE0202D20E2FBEAEBFEF7E5EDE8E54E
:100D3E0020EFE8F2E0EDE8FF0D0A00D2E5F0ECEE70
:100D4E00ECE5F2F0FB20EDE520EDE0E9E4E5EDFB6E
:100D5E000D0A00D2E5F0ECEEECE5F2F0205B25306A
:100D6E0032785D20F3F1EFE5F8EDEE20EFF0EEE8EE
:100D7E00EDE8F6E8E0EBE8E7E8F0EEE2E0ED0D0A8C
:100D8E0000CDE520ECEEE3F320EFF0EEE8EDE8F633
:100D9E00E8E0EBE8E7E8F0EEE2E0F2FC20EDEEE270
:100DAE00FBE920F2E5F0ECEEECE5F2F0205B25300D
:100DBE0032785D0D0A00CDE520ECEEE3F320EFF086
:100DCE00EEE8EDE8F6E8E0EBE8E7E8F0EEE2E0F278
:100DDE00FC20F2E5F0ECEEECE5F2F0205B25303293
:100DEE00785D0D0A00D2E5F0ECEEECE5F2F0205B5A
:100DFE00253032785D20F3F1EFE5F8EDEE20EEF7D9
:100E0E00E8F9E5ED0D0A00CDE520ECEEE3F320EE7A
:100E1E00F7E8F1F2E8F2FC20F2E5F0ECEEECE5F2A8
:100E2E00F0205B253032785D0D0A00C7E2F3EA2030
:100E3E00E2FBEAEBFEF7E5ED0D0A00C7E2F3EA206E
:100E4E00E2EAEBFEF7E5ED0D0A00CFE5F7E0F2FC86
:100E5E0020E2EAEBFEF7E5EDE00D0A00CFE5F7E064
:100E6E00F2FC20E2FBEAEBFEF7E5EDE00D0A20C214
:100E7E00F0E5ECFF2C20D2E5ECEFE5F0E0F2F3F03C
:100E8E00E020E7E0E4E0EDEDE0FF2C20D2E5ECEF32
:100E9E00E5F0E0F2F3F0E020E8E7ECE5F0E5EDED6B
:100EAE00E0FF2C2044656C74612C20D3E3EEEB2024
:100EBE00EAF0E0EDE020F0E0F1F7E5F2EDFBE92CF1
:100ECE0020D3E3EEEB20EAF0E0EDE0E8E7ECE5F02E
:100EDE00E5EDEDFBE92C20D3E3EEEB20EEE3F0E0C5
:100EEE00EDE8F7E5EDE8FF2C20726573756C742C58
:100EFE0020705465726D2C20695465726D2C2064BF
:100F0E005465726D2C20CEE1EEF0EEF2FB20F0E097
:100F1E00F1F7E5F2EDFBE52C20CEE1EEF0EEF2FB83
:100F2E0020E8E7ECE5F0E5EDEDFBE5E50D0A00C2A6
:100F3E00F0E5ECFF3A20253032753A253032753A1D
:100F4E00253032752C20E4E0F2E03A253032752E51
:100F5E00253032752E253032752C20EDE0E9E4E592
:100F6E00EDEE20257520F2E5F0ECEEECE5F2F0EE7C
:100F7E00E20D0A0043E0E0E1FBF2E8E5203D20252A
:100F8E00750D0A00D3E4E0EBE8EBE820E0EAF2E8C6
:100F9E00E2EDF3FE20F2F0E5E2EEE3F33A20257304
:100FAE000D0A00C8EDE8F6E8E0EBE8E7E8F0F3E557
:100FBE00EC20E2F1E520F2E5F0ECEEECE5F2F0FBF0
:100FCE00210D0A0025730900C2F1E5EC20EDE0E9E0
:100FDE00E4E5EDFBEC20F2E5F0ECEEECE5F2F0E012
:100FEE00EC20EFF0EEEFE8F1FBE2E0E5EC203078FC
:100FFE0036392030784645202D20D2E5F0ECEEEC47
:10100E00E5F2F020E220EFEEECE5F9E5EDE8E80D93
:10101E000A00C2F1E5EC20EDE0E9E4E5EDFBEC20A1
:10102E00F2E5F0ECEEECE5F2F0E0EC20EFF0EEEFB6
:10103E00E8F1FBE2E0E5EC203078363920307846F6
:10104E0044202D20D2E5F0ECEEECE5F2F020EDE0C0
:10105E0020F3EBE8F6E50D0A00C2F1E5EC20EDE039
:10106E00E9E4E5EDFBEC20F2E5F0ECEEECE5F2F078
:10107E00E0EC20EFF0EEEFE8F1FBE2E0E5EC203003
:10108E007836392030784643202D20D2E5F0ECEE2C
:10109E00ECE5F2F020EDE020EFEEE4E0F7E520E203
:1010AE00EEE4FB0D0A00C2F1E5EC20EDE0E9E4E52B
:1010BE00EDFBEC20F2E5F0ECEEECE5F2F0E0EC20EE
:1010CE00EFF0EEEFE8F1FBE2E0E5EC2030783639B8
:1010DE002030784642202D20D2E5F0ECEEECE5F201
:1010EE00F020EDE020EEE1F0E0F2EAE520E2EEE4C1
:1010FE00FB0D0A00CDE0E6E0F220F1E8ECE2EEEBCB
:10110E0020307825780D0A0000060C13191F262CA6
:10111E0032383F454B51585E54D90500010000034B
:10112E000102010002000300001201040000000190
:10113E0005000016000600000000070014000E0156
:10114E000805000D010913000F010A030010010B21
:10115E000B0011010C0000020129000018012A00E9
:10116E00980806010FD00705000DA2FE05000E20FF
:10117E001C050010641905001128000400122A0035
:10118E000401135F00040014640004011501000142
:10119E0000160100010117003CF6070118AC0D08FE
:1011AE000119E80308011ADC0506011B1E000B01DC
:1011BE001C0A000B011D010009011E000009011F80
:1011CE000000090120000005012100000A01220093
:1011DE000005012300000A0124000005012500007E
:1011EE000A0126000005012700000A012800000060
:1011FE0017003D000017003E000017003F000017CB
:10120E0000400000170041000017004200001700C8
:10121E004300001700440000170045000017004669
:10122E0000001700470000170048C7E0EFE8F1FC88
:10123E0020E2F0E5ECE5EDE820253032753A253078
:10124E0032753A30300D0A00C4E0F2E0202530321B
:10125E00752E253032752E3230253032750D0A003E
:10126E00C7E0EFE8F1FC20E4E0F2FB202530327518
:10127E002E253032752E3230253032750D0A00C2D1
:10128E00F0E5ECFF20253032753A253032753A30D4
:10129E00300D0A00D3E4E0EBE8EBE820E0EAF2E8F8
:1012AE00E2EDF3FE20F2F0E5E2EEE3F33A202573F1
:1012BE000D0A00C8EDE8F6E8E0EBE8E7E8F0F3E544
:1012CE00EC20E2F1E520F2E5F0ECEEECE5F2F0FBDD
:1012DE00210D0A002573002573C2CACB2E0025737B
:1012EE00C2FBEAEB2E0025732575252500257325F7
:1012FE00750025732564002573D1D2CECF002573DA
:10130E00CFD0CEC3D0C5C2002573CED1D2C0CDCEE4
:10131E00C2002573CFD3D1CA002573202A2A0025F7
:10132E0073257521002573CDC5D2002573C7C8CC92
:10133E00C0002573CBC5D2CE002573253032753A49
:10134E0025303275002573253032752E25303275D5
:10135E002E2530327500257320C2F02E2FC4E0F2F8
:10136E002E00257325303375002573256325752EC4
:10137E00252D303175430025733230257500C2FBA3
:10138E00E1EEF020ECE5EDFE205B25752C202575B9
:10139E005D002031292025732C0932292025730D5B
:1013AE000A00D2E5EAF3F9E5E520ECE5EDFE3A2098
:1013BE00002573090000C7E0EFE8F1FBE2E0E5EC81
:1013CE002053455454494E475320E2204545505230
:1013DE004F4D205B307825785D3A20000D0A00C70E
:1013EE00E0EFE8F1FBE2E0E5EC20414C41524D200C
:1013FE0023257520E220454550524F4D205B307815
:10140E0025785D20EFEE20E0E4F0E5F1F320307872
:10141E0025783A0D0A00D1F7E8F2FBE2E0E5EC2080
:10142E00E8E720454550524F4D205B307825785DDA
:10143E003A200000253032753A253032752025309D
:10144E0032752E25303275002573003E202573200F
:10145E0025692025692025730D0A00C2F1E520E0DB
:10146E00E2E0F0E8E83A0D0A0000D1F2F3EAF2F316
:10147E00F0E0207369676E616C73203D0020257863
:10148E00000D0A00FF000000000000003303FF0003
:10149E000000000000003305FF0000000000000007
:1014AE003306FF000000000000003307FF000000BD
:1014BE00000000003302FF000000000000003304B3
:1014CE00FF00000000000000360101002D4E414ECD
:1014DE00000009006000C60309000000D0030700E9
:1014EE00B801800458006001880401000600E00481
:1014FE002300340226112300EE024A113700570250
:10150E006E1155001103A6113C008E02FC1146000F
:10151E00B20392140100F803D8140000F894EE27D9
:10152E00ECBBF1E0FBBFEBBFE5BFF8E1F1BDE1BD08
:10153E008DE0A2E0BB27ED938A95E9F780E098E075
:10154E00A0E6ED930197E9F7E0EEF4E18591959130
:10155E00009761F0A591B59105901590BF01F0012E
:10156E0005900D920197E1F7FB01F0CFEFE5EDBF8E
:10157E00E8E0EEBFC0E6D1E00C945A0D0E941C29A3
:10158E00E091D801E03019F0E150E093D801E091FC
:10159E00D501F091D601309709F1A5EDB1E0ED91AD
:1015AE00FD913197FE93EE93E091D501F091D60126
:1015BE00309721F4A091B901A13009F00FC0E1E0FC
:1015CE00E093BC01EAEDF3E00E942A29E3E0E09308
:1015DE00B901E0E0E093D9010E943129E091D701F1
:1015EE00E03071F0E150E093D701E03021F4A091AA
:1015FE00B901A23009F004C00E9435290E943B298E
:10160E00E091D401E03091F0E150E093D401E0306C
:10161E0069F4E091CB01E03031F0E091D401EF5F5D
:10162E00E093D40103C0E6E0E093CB01E091BD016D
:10163E00E03019F4E0E0EA936FD0E0E0EA930E9424
:10164E007E19E0E0EA933DD00E94432FE0937A02A8
:10165E00F0937B02E1E0EA9334D00E94432FE093B3
:10166E007002F09371020E943F29309739F0A2ED7B
:10167E00B1E0ED91FD913197FE93EE93E091CB01A8
:10168E00E03019F4E5E0E093CB010CC018950E9410
:10169E001C290E942825E091D502E03019F0E15076
:1016AE00E093D502E991EFBFF991E991B991A99132
:1016BE009991899179916991F9901990099018955C
:1016CE001895E881E06CE7B98CE08A95F1F7369AC7
:1016DE00349BFECF349AE4B1F5B1E3C1F894E091B6
:1016EE00CC01EA93E091CD01EA93E091CE01EA9329
:1016FE000E941327E091D101EA93E091D001EA9381
:10170E00E091CF01EA930E943B2778940E944429EE
:10171E00E1E0EA9301D00895E881E03031F00E94D3
:10172E004A29E0E0EA930E94ED26ECECF1E0FA9310
:10173E00EA93EDECF1E0FA93EA93EEECF1E0FA9332
:10174E00EA930E940227E1EDF1E0FA93EA93E0EDCD
:10175E00F1E0FA93EA93EFECF1E0FA93EA930E9448
:10176E0024279FC11A930A93E0E0EBB9E6E8E0BDA7
:10177E00E8E1EAB901E010E009B9E12FF070E0BD4F
:10178E00099119910895E2EEF3E00E942A290E9430
:10179E004F29E09393010E944429E3E1F4E0FA9388
:1017AE00EA930E9457290E945F290895E0E0EBBB5F
:1017BE00ECEFEABBE7E0E8BBE8EFE7BBEFEFE5BB3A
:1017CE00E0E0E4BBEDE0E2BBE2EFE1BBECE6E3BF61
:1017DE00E0E0E2BFECBFEFBDE2E0EEBDE0E0EDBD6C
:1017EE00ECBDE7BDE6BDEBBDEABDE9BDE8BDE2BDC2
:1017FE00ECE6E5BDE0E0E4BDE3BDEBB7E06EEBBFCC
:10180E00E6E0E5BFE0E0E4BFE0EEEABFE5E4E9BF15
:10181E00A9DFE0E8E8B9E0E0E0BFE0ECE7B9E6EA2E
:10182E00E6B9E0B7EF71E0BFEDE1F4E00E942A29DE
:10183E00E4EFF1E00E9464290E94D72DE0E0E093EE
:10184E00BD01E1E0EA9368DF9EDFECE0EA930E94DF
:10185E00320DE0E0E0931F020E9468290E946D297C
:10186E000E943B290E9471290E94792908950E94A5
:10187E007D29C6980895E881E03011F0C59A01C01F
:10188E00C598C798D49AD59AD69AD79ADF98DE98E3
:10189E00DD98DC98E981E07809F0DF9AE981E0745F
:1018AE0009F0DE9AE981E07209F0DD9AE981E071D2
:1018BE0009F0DC9ADCDFDF98DE98DD98DC98E981B0
:1018CE00E87009F0DF9AE981E47009F0DE9AE981A7
:1018DE00E27009F0DD9AE981E17009F0DC9AC7DF68
:1018EE00DC9ADD9ADE9ADF9A97C00A93E981E0309E
:1018FE0011F0C59A01C0C598C79AD498D598D698B4
:10190E00D7980E947D2900E0CC990061D59900629C
:10191E00D6990064D7990068C69886EE90E0019734
:10192E00F1F70E947D29CC990160D5990260D69974
:10193E000460D7990860C698E02F08816DC0E0E07A
:10194E00EA93D3DFE078D9F78CE08A95F1F7E0E0FF
:10195E00EA93CBDF08950A93A981A03410F400E432
:10196E0001C000E0E02FE058EA9302D0088154C095
:10197E00E6DFE881EA93E0E0EA937DDF92C0E8815A
:10198E00E03019F4E981E05802C0E981E054EA93AD
:10199E00EFDF42C0E1E0EA93EBDF0895EF97219786
:1019AE0080E4A0E0B0E0E0E4F4E00E9450310A935D
:1019BE00C6DF0E2FDE01AF5BBF4FAC91AA3019F41C
:1019CE000A93C9DF1AC0DE01AF5BBF4FAC91A03CDA
:1019DE0028F4FE01EF5BFF4FE0810BC0FE01EF5BD1
:1019EE00FF4FE081E05CF0E0DE011196AE0FBF1F0D
:1019FE00EC91EA93E1E0EA933EDF0881EF962396BD
:101A0E000895A881B981EC91E03031F0ED91A88371
:101A1E00B983EA93C3DFF5CF229608950A9300E0C7
:101A2E000F3070F4AA81BB81EC91E03021F0ED9182
:101A3E00AA83BB8301C0E0E2EA93B0DF0F5FF0CF71
:101A4E00E981E03011F0EEE301C0E0E2EA93A6DFB7
:101A5E00088124960895BD9ABF9ABE9AD49AD59AB3
:101A6E00D69AD79AE0E1F0E00E946429DD9ADC9ADA
:101A7E00FEDEE9E2F0E00E9464290E9483290E94C2
:101A8E008329DC980E948329E8E2EA9371DFE8E07B
:101A9E00EA936EDF7FDFE6E0EA936ADFE881EA939E
:101AAE0067DF219608950E94DD0B7894E2EEF4E054
:101ABE000E942A290E940426ECEFF4E0FA93EA939E
:101ACE00E4E0F0E060E070E00E940C30E1E0F0E075
:101ADE0060E070E00E940C300E9457290E94892914
:101AEE0008E50E948E2919F40E94942909F00DC070
:101AFE0021970E949A290E94A1290A930E940123EC
:101B0E00E1E4F5E00E94A6292AC02197E02FE452D5
:101B1E00E8830E948E2969F4E4E0E0939301E8E8FB
:101B2E00F5E00E942A290E94A129EA81EA930E94E7
:101B3E0001230E94942999F421970E94A129EB81F7
:101B4E00EA930E944C230E949A29E2EBF5E00E9450
:101B5E00A6290E94A1290A930E940123219621966B
:101B6E000E94A1290A930E944C230E94AF290E9431
:101B7E00B3290E948B237CD7E6D7E0919001E03009
:101B8E0011F0E1E001C0E0E0EA930E94C1250E945D
:101B9E00B7290E94BF290E94C42966277727EC50D7
:101BAE00FE4F6F4F7F4F2F01F2010E944E2F0E946A
:101BBE008130A0E0B0E08CE992E40E94FD30A0E01C
:101BCE00B0E08AE794E40E94AF30AFEBB1E00E9440
:101BDE004A30ED93FC930E94C8290E94CF2924F429
:101BEE000E94C8290E94D7290E94EF2924F4A5E754
:101BFE00B2E0E62D04C0A5E7B2E0E0916C01F0E0A2
:101C0E00ED93FC93EAEDF5E00E94F8290E94032A79
:101C1E000E94082A0E940D2A0E9498170E944326AD
:101C2E0004D02ED119D4F8CFFFCFE0911F020E941D
:101C3E00122A319748F0A0911F02A03014F4E1E06F
:101C4E0001C0E3E0E093CB01A091CB01A03019F4E9
:101C5E000E94942909F003C0E2E0E093CB01A09129
:101C6E00CB01A03019F40E948E2909F003C0E4E0E4
:101C7E00E093CB01A091CB01A03021F4E0E00E94D3
:101C8E00162A09F003C0E8E0E093CB01A091CB0146
:101C9E00A03041F4E0915002E03021F4E1E00E94E6
:101CAE00162A09F003C0E7E0E093CB01A091CB0127
:101CBE00A03041F4E0918401E03021F4E4E00E9490
:101CCE00162A09F403C0E9E0E093CB01A091CB0101
:101CDE00A03041F4E0918501E03021F4E5E00E946E
:101CEE00162A09F403C0EAE0E093CB01A091CB01E0
:101CFE00A03041F4E0918F01E03021F4E6E00E9443
:101D0E00162A09F003C0EBE0E093CB01A091CB01C2
:101D1E00A03041F4E0918B01E03021F4A091E80174
:101D2E00A53008F403C0EFE0E093CB01A091CB0106
:101D3E00A03041F4E0918C01E03021F4A091EE014D
:101D4E00A53008F403C0E0E1E093CB01A091CB01F4
:101D5E00A03041F4E0918D01E03021F4A091F40126
:101D6E00A53008F403C0E1E1E093CB01A091CB01D3
:101D7E00A03041F4E0918E01E03021F4A091FA01FF
:101D8E00A53008F403C0E2E1E093CB010E94C8291C
:101D9E000E94CF2914F00C94270FA091CB01A030F4
:101DAE0099F4E0918C01E03021F4E0918601E0306D
:101DBE0009F00AC0A091E901B091EA010E94BF2981
:101DCE003597AE17BF070CF003C0ECE0E093CB01E4
:101DDE00A091CB01A030A1F4E0918B01E03021F471
:101DEE00E0918701E03009F00BC0E0918001F091A5
:101DFE008101A091E301B091E401AE17BF070CF091
:101E0E0003C0EDE0E093CB01A091CB01A030A1F493
:101E1E00E0918E01E03021F4E0918901E03009F08B
:101E2E000BC0A091F501B091F601E0917A01F0910D
:101E3E007B01AE17BF070CF003C0EEE0E093CB01C1
:101E4E00A091CB01A03021F4E091BA01E03009F469
:101E5E0016C0E091BA01E450E093BA01E091BA01E4
:101E6E00E03021F0E0915002E03009F002C0E7E0EE
:101E7E0001C0E8E0E093CB01E0E0E093BA01089501
:101E8E00E091CB01E53011F00C94950FE0E0EA9370
:101E9E0052D6E0933402F0933502E091B801E0306F
:101EAE0011F451D606C0E13021F4E0E0EA930E942D
:101EBE009F1FE091CA01E03021F0A091B901A1303D
:101ECE0009F004C0ECE0F6E00E942A29E091CA0174
:101EDE00E03021F0A091B901A33009F008C0EEE086
:101EEE00F6E0FA93EA930E941B2A0E945F29E09182
:101EFE00CA01E03021F0A091B901A03009F00AC06A
:101F0E00E1E3F6E0FA93EA93E091D8010E94212AE8
:101F1E000E945F29E0E0E093CB019DC2E13011F019
:101F2E00E33039F5ECE3E093D401E0E0E0931F02F7
:101F3E00EA930E947C25E091B801E03029F40E94DA
:101F4E00B3290E94272A11C0E13039F4E091CB0168
:101F5E00E250EA930E949F1F08C0E23031F4E091F4
:101F6E00CB01E250EA930E94C420E0E0E093CB0163
:101F7E0072C2E23009F5E1E0E093D802E0E0E093CE
:101F8E00CB010E94302AECE3E093D401E091B8013A
:101F9E00E03029F40E94B3290E94272A0CC0E130B8
:101FAE0019F40E94FA1F07C0E23029F40E946A2039
:101FBE00E1E0E093B8014FC2E63041F4E091B801A0
:101FCE00E03019F0ECE3E093D40102C0E43039F5CF
:101FDE00A091CB01A43041F40E94302AE1E0E093BD
:101FEE00D902ECE3E093D401E0E0E093CB01E09181
:101FFE00B801E03011F4A7D50FC0E13019F40E94FA
:10200E00342A0AC0E23019F40E94342A05C0E330A3
:10201E0019F4E1E0E093B8010E94D10C1CC2E73044
:10202E0011F00C949510E1E0E093D702E4E5F6E0B0
:10203E000E942A29E091B901E03011F00C946F1042
:10204E00E0919001E03021F10E943B2AE1E0E09323
:10205E00BB01E093B9010E943F2AE093D501F093B2
:10206E00D6010E94442AE9E6F6E0FA93EA93E0915B
:10207E00BF01F091C0010E94082A0E943F2A0E94CF
:10208E00082A0E940D2AE4E0EA930E94B42511C0AA
:10209E000E947929E0E0E093BB01E3E0E093B9010F
:1020AE00E1E0E093BC010E943129E2EAF6E00E94F1
:1020BE002A290E94B7290E944B2A14F40E94532AFF
:1020CE00E0E0E093D9010E945A2A0E94602A22C0C1
:1020DE00E13049F40E94302A0E94642AE7EBF6E0D0
:1020EE000E942A2917C0E23059F40E94302AE3E0F8
:1020FE00EA930E94B425E8ECF6E00E942A290AC071
:10210E00E33041F40E94302A0E943129EBEDF6E0D3
:10211E000E942A29E0E0E093CB019DC1E83011F046
:10212E000C94EC10E1E0E093D602E9EEF6E00E94AA
:10213E002A29E091B901E03059F40E94302A0E9418
:10214E005A2A0E943B29EEEFF6E00E942A2937C058
:10215E00E130B1F4E2E0E093B901E0E0E093D501C3
:10216E00E093D6010E94642A0E94602AEDE0F7E017
:10217E000E942A29EAE0E093D7010E945A2A1FC042
:10218E00E23049F40E94302A0E945A2AE8ECF6E026
:10219E000E942A2914C0E33091F4E2E0E093B901E1
:1021AE00E3E0EA930E94B4250E94602AEDE0F7E096
:1021BE000E942A29EAE0E093D7010E945A2AE0E021
:1021CE00E093BC01E093CB0146C1E93031F50E94AA
:1021DE00682A0E943529E0919001E03019F0E1E083
:1021EE00E093BB010E94442AE2E0EA930E94C125DB
:1021FE000E943B290E94702AE0E00E94792AE0E0CA
:10220E00EA930E94BA23E7E2F7E00E947F2A0E9437
:10221E00842AE0E0E093CB011EC1EA30F1F40E9483
:10222E00682A0E94642A0E943529E1E0E093BB01EE
:10223E000E94442A0E94702AE1E00E94792AE1E07D
:10224E00EA930E94BA230E948B2AE1E0EA930E944D
:10225E00842AE0E0E093CB01FEC0EC30E1F40E9472
:10226E00702AE2E00E94792AE2E0EA930E94BA2301
:10227E00E0919001E03019F0E1E0E093BB010E94A3
:10228E00442A0E948B2AE2E0EA930E94842AE0E02C
:10229E00E093CB01E0C0ED30F9F40E94702AE3E048
:1022AE000E94792AE3E00E94902A0E943B290E9414
:1022BE003529E0919001E03019F0E1E0E093BB01A7
:1022CE000E94442A0E948B2AE3E0EA930E94842A09
:1022DE00E0E0E093CB01BFC0EE30F9F40E94702A2B
:1022EE00E5E00E94792AE5E00E94902A0E943B29AF
:1022FE000E943529E0919001E03019F0E1E0E09381
:10230E00BB010E94442A0E948B2AE5E0EA930E94B8
:10231E00842AE0E0E093CB019EC0EF3019F50E94D5
:10232E00942AE091E8010E94992AE7E00E94792A16
:10233E00E7E00E94902A0E943B290E943529E091F5
:10234E009001E03019F0E1E0E093BB010E94442AD5
:10235E000E948B2AE7E0EA930E94842AE0E0E09351
:10236E00CB0179C0E03109F50E94942AE091EE018B
:10237E000E94992AE8E00E94792AE8E00E949D2AAC
:10238E000E943529E0919001E03019F0E1E0E093F0
:10239E00BB010E94442A0E948B2AE8E0EA930E9425
:1023AE00842AE0E0E093CB0156C0E131C9F40E94EB
:1023BE00942AE091F4010E94992AE9E00E94792A78
:1023CE00E9E0EA930E94BA23E1E4F7E0FA93EA9394
:1023DE00E9E0EA930E94842AE0E0E093CB013BC05F
:1023EE00E23109F50E94942AE091FA010E94992A9D
:1023FE00EAE00E94792AEAE00E949D2A0E9435298D
:10240E00E0919001E03019F0E1E0E093BB010E9411
:10241E00442A0E948B2AEAE0EA930E94842AE0E092
:10242E00E093CB0118C0EB30B1F40E94702AEBE0C0
:10243E000E94792AEBE0EA930E94BA23E0E0E0934F
:10244E00CB010E948B2AEBE0EA930E94842AE2E001
:10245E00EA930E94A72508950E944431E091E3017A
:10246E00F091E401E0935C02F0935D02E091E901EA
:10247E00F091EA01E0936102F09362020E94A92AB0
:10248E00E091EF01F091F001E0936602F0936702A4
:10249E00E091F501F091F601E0936B02F0936C027E
:1024AE00E0917502ECBFE0917F02E3BDE091BC01CB
:1024BE00E03011F4949801C0949AE091BB01E030A1
:1024CE0011F4959801C0959AA4E8B2E0E091BC0190
:1024DE000E94B22A0E94B62AE091B901E03011F0B2
:1024EE000C946C130E945A2AE0919001E03011F482
:1024FE000C946413E0919001E03029F00E94C829F9
:10250E000E94CF290CF008C00E94C8290E94D7292A
:10251E00E4E66E1608F46E2EA0917C01B0917D015A
:10252E00E0916B02F0916C02AE1BBF0B0E94BB2AB6
:10253E00E093DD02F093DE020E94C02AE85CF040D8
:10254E008F010E94C02AE45FF1400E94C52A24F048
:10255E00A091D801A03009F038C0E4E1E093D80191
:10256E000E94032A0E94CD2A0E94EF2914F40E9491
:10257E00D82A0E94DC2A14F00E94442A0E94E42ADF
:10258E00A217B30734F4E3E0EA930E94C125E1E019
:10259E0003C00E943B2AE0E0E093BB01E091CA0138
:1025AE00E03099F0E6E5F7E00E94E92A0E94032A5E
:1025BE000E94082A0E94F02AE62D0E94212A0E94DB
:1025CE00E42A0E94F52A0E94FA2A0E94C02AE650A6
:1025DE00FF4F8F010E94C02AEC50FE4F0E94C52A69
:1025EE0024F4A091D801A03009F03CC0E4E1E093BE
:1025FE00D8010E94EF2914F40E94D82A0E94DC2AE6
:10260E0014F00E94442A0E94E42AA017B10724F075
:10261E00A091BB01A13009F005C00E943B2AE0E069
:10262E00E093BB010E94E42AA217B30724F00E9494
:10263E00032A0E94CD2AE091CA01E03099F0ECEC19
:10264E00F7E00E94E92A0E94032A0E94082A0E94AB
:10265E00F02AE62D0E94212A0E94E42A0E94F52AE1
:10266E000E94FA2AE091D801E03031F5E4E1E093DE
:10267E00D801A0916602B09167020E94C02AAE17DF
:10268E00BF071CF0E0E0E093BB01E091CA01E0302F
:10269E0099F0E4E4F8E00E94E92A0E94032A0E94DD
:1026AE00082A0E94F02AE62D0E94212A0E94E42A7E
:1026BE000E94F52A0E94FA2A05C00E947929E0E0BC
:1026CE00E093BB010E943B29BEC0E33011F00C9495
:1026DE002A14E0919001E03019F00E943B2A04C0C8
:1026EE000E9479290E94B7290E943F29309711F044
:1026FE000C9428140E94FF2AA0915702B091580200
:10270E00AE1BBF0BBA93AA93E8E7FCEEFA93EA93DB
:10271E00E8E8F3E1FA93EA93DFD0E0917801F091E3
:10272E007901E093D201F093D301E0919001E03072
:10273E0029F00E94C8290E94CF290CF082C00E9465
:10274E00032AEF3FA0E0FA0751F40E94FF2AE85C4B
:10275E00F040DF010E94042BAE17BF070CF022C021
:10276E000E94092BF1F40E94122B3A970E94172B0C
:10277E000E944B2A14F40E94532AE091CA01E030C1
:10278E0081F0EEEBF8E00E94F8290E941F2BE091F9
:10279E00D9010E94212A0E94FF2A0E94082A0E9423
:1027AE00242B38C00E94292BAE17BF075CF4A091D2
:1027BE005C02B0915D02A45DBE4F0E94042BEA172D
:1027CE00FB070CF024C00E94092B01F50E94122B6E
:1027DE003A960E94172B0E94292BEA17FB0714F436
:1027EE000E94B729E091CA01E03081F0EFE1F9E0F3
:1027FE000E94F8290E941F2BE091D9010E94212AE4
:10280E00E0916D010E94212A0E94242B03C0E0E07A
:10281E00E093D901E091CA01E03099F0ECE8F9E0DB
:10282E000E94F8290E941F2BE0916D010E94212A1F
:10283E000E94FF2A0E94082AE62D0E94212A0E9449
:10284E00FA2A0E9431290E944B31249608950E9443
:10285E00C8290E94CF2924F40E94C8290E94D72992
:10286E000E94EF291CF40E94D82A05C00E94DC2A7F
:10287E0014F00E94442A0895A0917602AA231AF019
:10288E000E94DC2A0CF013C06091750270917602E2
:10289E00A881B9810E94BB2ADF010E94312B0E94C0
:1028AE00862FE60FF71FE0937502F0937602CFDFC7
:1028BE00E9EFF9E0FA93EA93EA81FB810E94082A94
:1028CE000E94032AA4E6B0E00E94362B0E941B2A27
:1028DE000E9489292296089522970E9442310E94D1
:1028EE00312BAC85BD850E94862FDF01EAE0F0E03A
:1028FE000E94A32F8F01EC85FD850E943E2BEA0FCF
:10290E00FB1FE093E102F093E2020E94292BAE1727
:10291E00BF0714F40C94E1140E94432B3CF0EA859B
:10292E00FB850E943E2BAE17BF0764F40E94432B1B
:10293E001CF4E885F98502C0EA85FB85E093E10287
:10294E00F093E202E0917201F09173010E943E2B2E
:10295E000E94862FDF010E94BB2AAF0100907401F6
:10296E00109075010E94FF2AA091DF02B091E00243
:10297E00EA1BFB0BD0010E94862F9F010E94FF2AAB
:10298E00E093DF02F093E002FA01E00FF11FE21B89
:10299E00F30BEE83FF83AE81BF810E94BB2AA09111
:1029AE007502B0917602EA0FFB1FE0937502F09369
:1029BE0076024DDFE091CA01E030A9F5E9E3FAE0D5
:1029CE000E94492B0E944E2B0E94512B0E94042BD9
:1029DE000E94082A0E94FF2A0E94082AEAA1FBA14F
:1029EE000E94082A0E94032A0E94082A0E94F02AA6
:1029FE00E62D0E94212AECA5FDA50E94082AF801C9
:102A0E000E94082AFA010E94082AF9010E94082A47
:102A1E000E94122B0E94082A0E941F2B8CE30E94F8
:102A2E00C528EE9621C0EAE7FAE0FA93EA93EE851E
:102A3E00FF850E94082AEC85FD850E94082A0E94C7
:102A4E00032A0E94082AF8010E94082AFA010E940D
:102A5E00082AF9010E94082A0E94FF2A0E94082AC9
:102A6E008CE10E94C5286E960E9449312E960895DB
:102A7E0022970E944231E0919301E03009F4B3C1F4
:102A8E0064D4EE83FF8320E0E09193012E1710F0C3
:102A9E000C949F150E94542BEDB7FEB7FA93EA9350
:102AAE003F9394D53F910E94542BD2D48F01E0E0F6
:102ABE004E2F5E2F0E94542BEDB7FEB7FA93EA937A
:102ACE005F93EDB7FEB7FA93EA934F933ED54F91CE
:102ADE005F91EFECFAE0FA93EA93E22FEF5F0E9438
:102AEE00212AF8010E94082AD8010E94BB2A0E94BE
:102AFE00082AD8010E945C2B0E94612BA88DB98DEB
:102B0E001196EC910E94212AAC8DBD8DEC910E9404
:102B1E00212AE32F0E94212AE52F0E94662BE42F03
:102B2E000E94662B84E20E94C528A6962F5FACCF2A
:102B3E000E946B2B58C1E8810E946E2BDF010E9410
:102B4E0004302196089528970E94433110E02BE21D
:102B5E00309134024091350200E00C3048F40E946E
:102B6E00742B11F0093009F401C01F5F0F5FF5CF10
:102B7E00E091B901E03039F40E947C2BEAEFFAE0E3
:102B8E000E94812B1AC0E13039F40E947C2BE2E0C6
:102B9E00FBE00E94812B11C0E23039F40E947C2BA5
:102BAE00EAE0FBE00E94812B08C0E33031F40E9482
:102BBE007C2BE2E1FBE00E94812B103039F00E9469
:102BCE007C2BEAE1FBE00E94812B02C00E9471295E
:102BDE00ECE0EA930E94BF0C0E94882B0E948D2B82
:102BEE00E2E2FBE00E94492B0E944E2B0E94512BE9
:102BFE000E94922B0E94952B84E10E94B128689628
:102C0E000E948D2B0E94080D0E944A290E94C60C1C
:102C1E00E0919301E03019F1442312F4EDE201C08A
:102C2E00EBE22E2F0E948D2BEDE3FBE0FA93EA935D
:102C3E00E22F0E94212A0E94982B0E94A02B0E9414
:102C4E00982B0E94D22FDF01EAE0F0E00E94A02B29
:102C5E00FE0175960E94612B0E94A32B06C00E9456
:102C6E008D2BEFE4FBE00E94812B0E948D2B0E94A6
:102C7E00080D0E944A312D9608951A930A93EFE596
:102C8E00FBE00E94A82B0E945F2900E0EA810E174C
:102C9E00B0F4AB81BC811D91AB83BC83E4520E17A3
:102CAE0018F4EFE7FBE002C0E3E8FBE0FA93EA93E7
:102CBE00E12F0E94212A0E945F290F5FE7CF0E9419
:102CCE006B2B19810881B2C321970E94423110E00B
:102CDE0020E00E944F29EE830E944429C9DE00E0C5
:102CEE00EE810E1788F50E94AC2BEDB7FEB7FA9366
:102CFE00EA934F93EDB7FEB7FA93EA933F9325D439
:102D0E003F914F913B3B29F4E42F0E94122A3297B8
:102D1E0001C0EFEF5E2F103061F4EF81A52F0E94FE
:102D2E00B42BEA17FB0719F4E02FEF5F01C0E0E0C8
:102D3E001E2F203039F45F3F11F4E0E002C0E02F87
:102D4E00EF5F2E2F0F5FCCCFE7E8FBE00E94B92B91
:102D5E00E12F0E94212AE22F0E94212A0E94892916
:102D6E00103051F0EAECFBE00E94B92BE12F0E94EB
:102D7E00212A0E940D2A37C0203029F4EEEFFBE005
:102D8E000E942A2930C0AF81EEEFEA1B4E2FE22FB0
:102D9E00E1500E2FEAE1FCE0FA93EA93E42F0E9451
:102DAE00662BE42F0E94662BE02F0E94212A0E94A0
:102DBE0089290E94AC2B4A93EBEB0E94BD2B69F044
:102DCE00EDE3FCE00E94B92BE22F0E94212A0E9423
:102DDE000D2A0E9444290C94950AEAE7FCE00E9411
:102DEE00B92B0E945F290E94493128960895ECEA7A
:102DFE00FCE00E942A29FFCF0A9300E0F894EEED42
:102E0E00FCE0FA93EA93EB810E94662B0E945F2905
:102E1E005F990CB10E37E1F70E944F29E0939301B1
:102E2E000E94442925DEE0919301E03029F4E9E483
:102E3E00FDE00E942A2916C0EBEFF1E0FA93EA9327
:102E4E00EB81EA93EBEB0E94BD2B19F0E1E6FDE07E
:102E5E0002C0EFE8FDE0FA93EA93EB810E94662B45
:102E6E000E945F29C4DF78940881F0C2A881AB3B31
:102E7E00B9F40E94C22BAB81EEEFEA1BEA93EB8111
:102E8E000E94BD2B19F0E1E6FDE002C0E4ECFDE08E
:102E9E00FA93EA93EB810E94662B0E945F2914C07D
:102EAE000E94C22BE1E0EA93EB810E94BD2B19F048
:102EBE00E3EFFDE002C0E5E1FEE0FA93EA93EB8179
:102ECE000E94662B0E945F29C1C2E091BE01E030D4
:102EDE0019F0E9E3FEE002C0E9E4FEE0FA93EA93BA
:102EEE0080E00E94C5282296E091BE010E94592FD3
:102EFE00E093BE010895E091CA010E94592FE0931C
:102F0E00CA01E091CA01E03019F0E8E5FEE002C026
:102F1E00EAE6FEE0FA93EA9380E00E94C528229644
:102F2E0008951A930A935F9B08C10CB1E02FEA37FC
:102F3E00C1F4EDE3FFE00E94492B0E944E2B0E944C
:102F4E00512B0E94922B0E94952BE091CF010E9453
:102F5E00212A0E9457298CE10E94C5286E9688DD91
:102F6E00ECC0E33711F4B1DFE8C0E73739F4E2E83B
:102F7E00FFE0FA93EA93E091CB01D8C0E83711F461
:102F8E00BADFDBC0E53619F40E945D24D6C0E43604
:102F9E00C1F410E01C3070F41A930E941824E03033
:102FAE0039F4E2E9FFE0FA93EA931A930E94842A35
:102FBE001F5FF0CFE1EBFFE00E942A290E94AF29AC
:102FCE00BCC0E33631F40E94A129E8E5EA9355DE50
:102FDE00B4C0ED36A9F410E01B3078F4E2EDFFE05A
:102FEE00FA93EA931A93E7E5F2E00E94CB2B0E9444
:102FFE00612B0E945F291F5FEFCF0E946B2B9DC03C
:10300E00EE36A9F410E0173078F4E2EDFFE0FA9313
:10301E00EA931A930E9468290E949A1D0E94612BBE
:10302E000E945F291F5FEFCF0E946B2B86C0EA3490
:10303E0019F40E94432681C0E53721F4EEEFEA939E
:10304E00DBDE7BC0E93621F4EDEFEA93D5DE75C009
:10305E00EF3621F4ECEFEA93CFDE6FC0E03721F4C8
:10306E00EBEFEA93C9DE69C0E03341F4E6EDFFE031
:10307E000E942A29E0E0EA9327DE5FC0E13341F4A3
:10308E00E0E2F0E10E942A29E1E0EA931DDE55C05C
:10309E00E23341F4E7E6F0E10E942A29E2E0EA9306
:1030AE0013DE4BC0E33341F4E4EBF0E10E942A2936
:1030BE00E3E0EA9309DE41C0EF3321F4E3E00E943E
:1030CE00CF2B3BC0EE3321F4E2E00E94CF2B35C074
:1030DE00EC3321F4E1E00E94CF2B2FC0ED3421F42C
:1030EE000E944A29C3DE29C0E23221F4E3E00E94A5
:1030FE00D42B23C0EA3321F4E2E00E94D42B1DC06E
:10310E00EC3421F4E1E00E94D42B17C0EB3421F40F
:10311E00E0E00E94D42B11C0E93319F40E948E24F2
:10312E000CC0E2E0F1E1FA93EA93E02FFF27662765
:10313E0077270E940C300E945F297BC00E9442318B
:10314E0000E010E0E09193011E1710F00C94EF18C0
:10315E00A9E01A9FF001E550FE4FFA93EA93EDB7FE
:10316E00FEB7FA93EA934F93EDB7FEB7FA93EA934D
:10317E003F93EBD13F914F915E2F51303CF120E0C8
:10318E00293020F53B3B61F4E42F0E94122A32973E
:10319E00A9E0B0E00E945E2FEC56FE4FDF0103C0A7
:1031AE000F5FA1ECB1E0E22FF0E0EA0FFB1FBF01D1
:1031BE00A9E01A9FF001E550FE4FDF01EE27A20FA6
:1031CE00BE1FEC91DB01EC932F5FDACF1F5FBACFFE
:1031DE00E02F0E944931C9C11A930A9300E0E09191
:1031EE0093010E1730F510E0193008F5A9E00A9F8B
:1031FE00F001E550FE4FDF01E12FF0E0EA0FFB1F7B
:10320E00FF93EF93A4E9B1E0E02F0E94D92BA9E040
:10321E00B0E00E945E2FDB01AE0FBF1FEE27A10FA5
:10322E00BE1FEC91AF91BF91EC931F5FDDCF0F5F8F
:10323E00D6CF099119910895A981A43008F055C0EF
:10324E00E9810E946E2BAA81BB81A083B183A881E4
:10325E00A130C9F4AA81BB81A13FE8EDBE0721F4DC
:10326E000E94DC2BA5E003C00E94DC2BA0E0A08313
:10327E000E94E32BBF01E9810E946E2B0E94EA2B74
:10328E00ED93FC9332C0E9810E946E2B60817181B7
:10329E000E94E32B0E94EA2BAE1BBF0BBA93AA939C
:1032AE000E94D428E83EA3E0FA0778F40E94E32BAC
:1032BE00BF01E9810E946E2B0E94EA2BED93FC93D5
:1032CE000E94DC2BA0E0A08310C0E9810E946E2B2F
:1032DE00BF010E94E32B0E94EA2BED93FC930E9408
:1032EE00DC2BDF01EC91EF5FEC93249608950A93AB
:1032FE00A981A130A1F470DF00E0E09193010E17D7
:10330E0070F40E94AC2BE2E0EA9331D10E94442982
:10331E000E94AC2B8DD00E9444290F5FEECF00E0AF
:10332E00E09193010E1778F422970E94AC2BC9D02E
:10333E00E883F983FA93EA930A93EE81EA937CDFAA
:10334E0022960F5FEDCF088181C0EAEDF1E008957E
:10335E000A930E94352EE03011F4E0E018C0E981A6
:10336E00FA81309779F0E5E50E94EF2BA981BA81B9
:10337E00ED91A983BA83EA930E947B2E0F5F0830EA
:10338E00A8F304C0ECECEA930E947B2EE1E00881E6
:10339E00239608950E94433130E0ED81FE810E9414
:1033AE00F42BEEEB0E94EF2B1AED21E02F931F93DF
:1033BE001F5F2F4F0E94762EAF91BF91EC930F5F40
:1033CE000930A0F3EAEDF1E0FA93EA93E9E0EA932B
:1033DE000E94F52E0E94592F4E2F3F5F403011F460
:1033EE00333008F001C0D9CFE42F0E944A310C943B
:1033FE00B11D0E944531EB81FC810E94F42BE0301F
:10340E0011F4E0E011C0EEE40E94EF2B1CED21E080
:10341E00A12FB22F1F5F2F4FEC91EA930E947B2EAC
:10342E000F5F0330A8F3E1E00E944C31259608951A
:10343E00E881F9810E94F42BE03011F4E0E006C03F
:10344E00E4E4EA930E947B2E0E94352E2296089584
:10345E00609780E1A0E0B0E0E6E1F1E10E9450313A
:10346E000E944531EB89FC890E94F82B19F4E1EF9B
:10347E00F8ED23C0E091DA01EF700E2F1091DB0111
:10348E002227F12FE0E0DF01E091DA01F0E0EA2BF4
:10349E00FB2B0E943A2FA4E6B0E00E94862F1E2F2F
:1034AE002F2FE02FF0E0DE011396AE0FBF1FEC9131
:1034BE00F0E01E0F2F1FE12FF22F0E944C31659668
:1034CE0008951A930A930E94FE2BC2DF8F010E9469
:1034DE00FE2BAEDFF801198108810C949D1F0E940E
:1034EE00032C19F4E0E00C949D1FE981E093DD01BB
:1034FE00E881E093DC010E94FE2B7BDFE03019F4C3
:10350E00E0E00C949D1F0E94032C19F4E0E00C9453
:10351E009D1FA091DD01E981EA1729F4A091DC013C
:10352E00E881EA1719F0E0E00C949D1FEA81FB8117
:10353E000E94F42BE03019F4E0E00C949D1F0E94E1
:10354E00062C0E94352E0C949D1FEC81FD810E944D
:10355E00F82B11F4EEE909C0E091DD01AA81BB81DF
:10356E00EC93E091DC010E940D2C269608950A93AF
:10357E000E94032C21F4E0E008810C949D1FE98148
:10358E00E295E07FEE0FEF610E2F0093DE010E94B9
:10359E00FE2B2FDFE03021F4E0E008810C949D1F1C
:1035AE000E94FE2BF7DEA091DE010A1721F0E0E06B
:1035BE0008810C949D1FEA81FB810E94F42B0E94CE
:1035CE00062C0E94352E08810C949D1F0E94032C00
:1035DE0019F4EDE90C949D1FE091DE010E940D2C73
:1035EE000C949D1FEA93EFB7EA93839B04C0E0917E
:1035FE001F02E15003C0E0911F02EF5FE0931F0234
:10360E00EAB7E064EABFEBB7EF7B05C0EA93EFB72A
:10361E00EA93EBB7E064EBBFE991EFBFE991189540
:10362E001A930A93AA81A13011F00C94B61BAEE343
:10363E00B2E0E09190010E94B22A0E94BF29E0936D
:10364E001103F09312030E94C02AE0931603F09325
:10365E001703E0917A01F0917B01E0931B03F09345
:10366E001C03E0918001F0918101E0932003F0931F
:10367E0021030E943F2AE0932503F0932603E09155
:10368E007801F0917901E0932A03F0932B030E94C5
:10369E00312BE0932F03F0933003E0917201F09100
:1036AE007301E0933403F0933503E0917401F091CC
:1036BE007501E0933903F0933A03E091B901E030DC
:1036CE0011F40E94B7290E94A92A0E94B62AE091FD
:1036DE00CC01F0E0E093EE02F093EF02A3EFB2E044
:1036EE00E091CD010E94B22AA8EFB2E0E091D101A3
:1036FE000E94B22AADEFB2E0E091D0010E94B22A50
:10370E00A2E0B3E0E091CF010E94B22AA7E0B3E0BD
:10371E00E09190010E94B22A00E00430F8F40E9479
:10372E00122CE12F1F5FA5E0EA9FF0010E94192CD9
:10373E00E05AFE4F0E94EA2BED93FC93A5E01A9FF0
:10374E00F0010E94192CEE59FE4FE081F0E0E7FDEA
:10375E00FFEFDB01ED93FC930F5FDFCFE1C1E09153
:10376E00BD01E03011F40C942D1C0E94202CA09170
:10377E00CC010E94252C39F4A091CD010E94292C58
:10378E000E94252C29F1E091EE02E093CC01E0910C
:10379E00F302E093CD01E0E0E093CE010E94750BC1
:1037AE00E8E3F2E10E942E2C0E94292C0E94082AA6
:1037BE000E940D2AE6E5F2E10E94322C0E94392C7D
:1037CE000E94082A0E943E2C0E94082A0E948929E3
:1037DE00A091D101E091F802F091F9020E94252CFE
:1037EE0071F4A091D0010E94392C0E94252C39F43D
:1037FE00A091CF010E943E2C0E94252C31F1E09128
:10380E00F802E093D101E091FD02E093D001E09146
:10381E000203E093CF010E94750BEEE6F2E10E94E7
:10382E00322C0E94392C0E94082A0E943E2C0E94A3
:10383E00082A0E948929EDE8F2E10E942E2C0E94AE
:10384E00292C0E94082A0E940D2A53C100E0043040
:10385E00D0F50E94122CA3E00A9FF001E05AFE4F11
:10386E00608171810E94432CDF010E940430E617B3
:10387E00F70771F0A3E00A9FF001E05AFE4FBF0177
:10388E000E94432C0E94EA2BED93FC93689420F83F
:10389E001F5FA3E00A9FF001EE59FE4F60810E9468
:1038AE00432CE081E61769F0A3E00A9FF001EE5980
:1038BE00FE4FBF010E94432CE081DB01EC93689424
:1038CE0020F80F5FC4CFA0917E01B0917F01E091EF
:1038DE001103F0911203EA17FB0731F0E0937E011A
:1038EE00F0937F01689420F8A0917C01B0917D0146
:1038FE00E0911603F0911703EA17FB0751F0E091E0
:10390E001603F0911703E0937C01F0937D01689408
:10391E0020F8A0917A01B0917B01E0911B03F09108
:10392E001C03EA17FB0751F0E0911B03F0911C03F7
:10393E00E0937A01F0937B01689420F8A0918001C6
:10394E00B0918101E0912003F0912103EA17FB076A
:10395E0051F0E0912003F0912103E0938001F09368
:10396E008101689420F8A0917601B0917701E091E1
:10397E002503F0912603EA17FB0751F0E09125038A
:10398E00F0912603E0937601F0937701689420F886
:10399E00A0917801B0917901E0912A03F0912B0367
:1039AE00EA17FB0751F0E0912A03F0912B03E09305
:1039BE007801F0937901689420F8A0917001B0918C
:1039CE007101E0912F03F0913003EA17FB0751F0DC
:1039DE00E0912F03F0913003E0937001F0937101A9
:1039EE00689420F8A0917201B0917301E0913403B4
:1039FE00F0913503EA17FB0751F0E0913403F09193
:103A0E003503E0937201F0937301689420F8A0914E
:103A1E007401B0917501E0913903F0913A03EA1700
:103A2E00FB0751F0E0913903F0913A03E0937401F2
:103A3E00F0937501689420F8A0918201B0918301F2
:103A4E000E94042BEA17FB0741F00E94042BE0931F
:103A5E008201F0938301689420F8E091B901E0307F
:103A6E0091F4A0916D010E94122B0E94252C59F009
:103A7E000E944B2A14F40E94532AE0917F02E09395
:103A8E006D01689420F8A091BB01E0918902F0913C
:103A9E008A020E94252C21F0E0918902E093BB015D
:103AAE00A091B901E0913902F0913A020E94252CC1
:103ABE0029F0E0913902EC5FE093BA0100E00C309E
:103ACE00C0F40E94742B19F00E94492C09F00FC00B
:103ADE000A93A7D6E2EAF2E1FA93EA930A930E94D6
:103AEE00842A0E94AF29E1ECF2E10E942A290F5F9D
:103AFE00E6CFA0919001E0910703F09108030E9498
:103B0E00252C71F0E0910703E0939001689420F862
:103B1E00E0910703F0910803E0933E02F0933F0219
:103B2E001981088128C30E944431EE81F0E06C8136
:103B3E007D810E94532CE60FF71F9F01D9010D9135
:103B4E001C913A932A93E0E0EA931A930A9304D0D5
:103B5E000E944B31279608952497EDE3E883EEE318
:103B6E00E983E0E2EA83E0E0EB830E944531A88539
:103B7E00AA2312F4EDE201C0EBE22E2FE985E0302C
:103B8E0019F0FE01339605C0EA85FB85A481AA9340
:103B9E00CFD48F01AA85BB851296EC91E03039F413
:103BAE000E948D2B0E94582C0E945E2C6AC1E1301F
:103BBE00A9F4EF81F885309729F00E948D2BE5EE60
:103BCE00F2E104C00E948D2BECEEF2E1FA93EA933F
:103BDE00F8010E94612B0E945E2C53C1E43079F4EF
:103BEE000E948D2BE4EFF2E10E94632CAF85B88921
:103BFE00E4E6F0E00E94362B0E94672C42C1E930C9
:103C0E0059F40E948D2BEBEFF2E10E94632C0E947F
:103C1E006C2C0E94672C35C1EA3059F40E948D2B12
:103C2E00E0E0F3E10E94632C0E946C2C0E94672C52
:103C3E0028C1E330D1F5A9E3B2E0E091B9010E94C9
:103C4E00B22AEF81F885309749F40E948D2BE5E07A
:103C5E00F3E10E94632C0E945E2C26C0E130A0E0AE
:103C6E00FA0749F40E948D2BECE0F3E10E94632CDD
:103C7E000E945E2C19C0E230A0E0FA0749F40E94BF
:103C8E008D2BE6E1F3E10E94632C0E945E2C0CC0AA
:103C9E00E330A0E0FA0741F40E948D2BE0E2F3E15D
:103CAE000E94632C0E945E2CECC0E831B1F4E985D1
:103CBE00E03029F00E948D2BEBEFF2E104C00E9460
:103CCE008D2BE7E2F3E1FA93EA93F8010E94612B60
:103CDE000E946C2C0E94672CD4C0E631C1F4EF8197
:103CEE00F885309759F00E948D2BEDE2F3E10E949A
:103CFE00632C0E946C2C0E94672C08C00E948D2B96
:103D0E00E3E3F3E10E94632C0E945E2CBAC0E7311C
:103D1E00B1F4EF81F885309759F00E948D2BEDE2CA
:103D2E00F3E10E94632C0E946C2C0E94672C06C04B
:103D3E000E948D2B0E94582C0E945E2CA2C0E23055
:103D4E00A9F4EF81F885309729F00E948D2BE9E3D5
:103D5E00F3E104C00E948D2BE0E4F3E1FA93EA93C1
:103D6E00F8010E94612B0E945E2C8BC0E33189F416
:103D7E000E948D2BE7E4F3E10E94632CE091CC01CD
:103D8E000E94212A0E944E2B8CE00E94B128609640
:103D9E0078C0E43189F40E948D2BE3E5F3E10E94B3
:103DAE00632C0E94922B0E94952BE091CF010E94D2
:103DBE00212A0E94A32B65C0E23149F40E948D2B6B
:103DCE00E4E6F3E10E94632C0E945E2C5AC0EB30B5
:103DDE0059F40E948D2BE0E7F3E10E94632C0E94C0
:103DEE006C2C0E94672C4DC0E53011F0E63009F4C2
:103DFE0002C0E73009F402C0E830F1F40E948D2BC6
:103E0E00E7E7F3E10E94632CE22F0E94212AEB895F
:103E1E00FC890E94C429DF01E4E6F0E00E94A02B99
:103E2E00AF89B88D0E945C2BDF01EAE0F0E00E94C2
:103E3E00A02B0E94A32B25C0EE3011F0ED3009F41B
:103E4E0002C0EF3009F402C0E03159F40E948D2B0C
:103E5E00EBEFF2E10E94632C0E946C2C0E94672C07
:103E6E0010C0E13159F40E948D2BE5E8F3E10E9478
:103E7E00632C0E946C2C0E94672C03C0E0E0E09340
:103E8E002002E0E2F2E00E944C312C960895E0E030
:103E9E00E093CA02E1E0E093CB02E981FA81E0937C
:103EAE00CD02F093CE02E881E093CF02E0E0E09302
:103EBE00CC0261C1AA81BB810A2EEC91A881EA0FC6
:103ECE00A02DEC93AA81BB81AC91E9810E94B42B09
:103EDE00AE17BF0724F0AA81BB81E0E0EC93AA8164
:103EEE00BB81AC91A0304CF4E981E150AA81BB8139
:103EFE00EC931196E0E0EC9319C0AA81BB81EC9192
:103F0E00EF5FAE2FE9810E94B42BEA17FB0731F465
:103F1E00AA81BB811196E0E0EC9308C0AA81BB8117
:103F2E00EC91EF5FAA81BB811196EC9324960895D4
:103F3E00A091CC02A03019F4A881A1300CF404C0D9
:103F4E00E1E0E093CC0219C0A091CC02A13019F4AB
:103F5E00A881A0300CF004C0E0E0E093CC020DC0CC
:103F6E00E881E03051F0EAECF2E0FA93EA93E09166
:103F7E00CF02EA93EB81EA939DDF0E94882BE091BA
:103F8E00CA020E946F2C0E94752CE091CA020E94F8
:103F9E00D92B0E94532C0E947C2C0E944A290E94ED
:103FAE00C60CE091CB020E946F2C0E94752CE09102
:103FBE00CB020E94D92B0E94532C0E947C2CE091A4
:103FCE00CC02E03021F0EFE0EA93E1E003C0EFE055
:103FDE00EA93E0E0EA930E94C60CEFE0EA930E94B7
:103FEE00BF0C219608950E94842C19F02091CB02CB
:103FFE0002C02091CA02A091D402A03011F4233045
:10400E0008F441C00E94B329E22FE33099F4EAECA0
:10401E00F2E0A3EEB2E08BE00E941130EEEEF2E0A1
:10402E00FA93EA930E946D29E1E0E093D402E093C3
:10403E00BD0125C0E43041F4E7E5F2E0FA93EA93DE
:10404E00EBE00E948A2C1BC0E53061F4E091500237
:10405E00E03039F0EEE8F2E0FA93EA93ECE00E94F9
:10406E008A2C0DC0E63059F4E0915502E03039F05B
:10407E00E1E1F3E0FA93EA93E1E10E948A2CE1E0B8
:10408E00E093B80173C00E94912C0E94532CE60F4E
:10409E00F71F8F01D8011396EC91E03009F466C03A
:1040AE00D8011396EC91A091B801EA0FE093B801F4
:1040BE000E94972CD8010E9404300E949C2CE0E0B4
:1040CE00EA935BD056C00E94842C19F02091CB024B
:1040DE0002C02091CA020E94912C0E94532CE60F1E
:1040EE00F71F8F010E94972C0E94A12CD801ED93EF
:1040FE00FC93E0E0EA9394DAE091BD01E03021F028
:10410E000E94A62C0E94AE2C20FE06C00E94A12961
:10411E000E94B42CE89420F829C00E94842C19F037
:10412E002091CB0202C02091CA020E94912C0E94C3
:10413E00532CE60FF71F8F01E091D402E03021F4EB
:10414E00E091BD01E03071F0E091BD01E03019F079
:10415E000E94A62C04C00E9468290E946D290E940C
:10416E00AE2C07C00E94972C0E94B82CE0E0EA9378
:10417E00DFDE0E944C31239608951A930A93009124
:10418E00D0021091D102D8011296EC91E03009F4D0
:10419E00A8C1E13011F0E23089F4EA81E03069F033
:1041AE000E94A12C309719F0E0E0F0E002C0E1E0AF
:1041BE00F0E0E093D202F093D30293C1E33089F49E
:1041CE00EA81E03069F00E94A12C309719F0E0E00E
:1041DE00F0E002C0E3E0F0E0E093D202F093D3020D
:1041EE0080C1E530B9F40E94BB2C0E94C62CA131CF
:1041FE00E7E2BE0724F0E8E4F4EF0E949C2C0E9454
:10420E00C62CA834E4EFBE0724F4E0E1F7E20E94E6
:10421E009C2C67C1E630B9F40E94BB2C0E94C62CC0
:10422E00A93BEBE0BE0724F0E4EFF1E00E949C2CEA
:10423E000E94C62CA43FE1E0BE0724F4E8EBFBE0AD
:10424E000E949C2C4EC1E730C9F40E94CB2C0E94D8
:10425E00D02C0E94C62CA93BEBE0BE0724F0E8E46C
:10426E00F4EF0E949C2C0E94C62CA834E4EFBE07EB
:10427E0024F4E8EBFBE00E949C2C33C1E830C9F437
:10428E000E94CB2C0E94D02C0E94C62CA131E7E2BA
:10429E00BE0724F0E4EFF1E00E949C2C0E94C62C95
:1042AE00A43FE1E0BE0724F4E0E1F7E20E949C2C7B
:1042BE0018C1E430A9F40E94C62C0E94D32C0E948F
:1042CE00C62CA030E1E0BE0714F00E94B82CA091DD
:1042DE00D302AA2322F4EFEFF0E00E949C2C01C13E
:1042EE00E930A9F40E94C62C0E94D32CA091D302CF
:1042FE00AA2322F4EFEFF0E00E949C2C0E94C62C21
:10430E00A030E1E0BE0714F00E94B82CEAC0EA30FB
:10431E00C9F40E94C62C0E94D32C0E94C62CA03831
:10432E00EFEFBE0724F4EFE7F0E00E949C2C0E9412
:10433E00C62CA038E0E0BE0724F0E0E8FFEF0E94B4
:10434E009C2CCFC0EB3089F50E94C62CA436E0E041
:10435E00BE073CF40E94C62CEA81F0E0E7FDFFEFB9
:10436E000FC00E94C62CA83EE3E0BE071CF4EA81F3
:10437E00AAE002C0EA81A4E6EA02F0010E94C62C7D
:10438E00EA0FFB1F0E949C2CA091D302AA2322F4B9
:10439E00E0E1FEE00E949C2C0E94C62CA131EEE0D2
:1043AE00BE0714F00E94B82C9CC0ED3099F40E9408
:1043BE00C62C0E94D32CA091D302AA2322F4EBE3A5
:1043CE00F0E00E949C2C0E94C62CDC9714F00E94F8
:1043DE00B82C87C0EE3099F40E94C62C0E94D32CC4
:1043EE00A091D302AA2322F4E7E1F0E00E949C2CD4
:1043FE000E94C62C589714F00E94B82C72C0EF3051
:10440E00A9F40E94C62C0E94D32C0E94C62C119790
:10441E0024F4EFE1F0E00E949C2C0E94C62C9097B1
:10442E0024F0E1E0F0E00E949C2C5BC0E031A9F4A6
:10443E000E94C62C0E94D32C0E94C62C119724F4E5
:10444E00ECE0F0E00E949C2C0E94C62C1D9724F0FC
:10445E00E1E0F0E00E949C2C44C0E131B9F40E94EE
:10446E00C62C0E94D32C0E94C62C1B9724F4E3E684
:10447E00F0E00E949C2C0E94C62CA436E0E0BE0701
:10448E0024F0EBE0F0E00E949C2C2BC0E73131F4DD
:10449E00EA81E03011F00E94B82C23C0E831E9F433
:1044AE000E94C62C0E94D32C0E94C62CE4E1F0E0A0
:1044BE000E94532FE0935502A091D302AA2322F417
:1044CE00E3E6F0E00E949C2C0E94C62CA436E0E0AD
:1044DE00BE0714F00E94B82C04C00E94C62C0E9485
:1044EE00D32C0E94882B1A930A93E0E0EA93D8010A
:1044FE000E94D82C31DB0E947F2A0E94150D0E944B
:10450E004A290E94C60C1A930A93E1E0EA930E948C
:10451E00A12CFA93EA9320DB0E947F2A0E94150DAC
:10452E00EFE0EA930E94BF0C198108810C94532787
:10453E00E881E03009F1A881AD3380F4E6E6F3E0DE
:10454E00FA93EA93EA81E150F0E00E94312FEC5A9F
:10455E00FF4FFA93EA930E94E7280AC0E6E6F3E0DB
:10456E00FA93EA93EA81ED530E94792A0E94DC289D
:10457E00E6E6F3E00C945927E0E0F0E00C945927BE
:10458E000E94DC2DE881E03011F0E2EA01C0E0EAA1
:10459E00EA930E94102EEA810E94DD2C0E94102EBA
:1045AE000E94EB2DEAE0F0E00E946429E1E00C9419
:1045BE0053270A930E94DC2DE981E03011F0E2EAE4
:1045CE0001C0E0EAEA930E94102EEA810E94E32CD9
:1045DE00E981E03011F0E3EA01C0E1EAEA930E94DA
:1045EE00102E0E94E82C0E2F0E94EB2DE02F08813A
:1045FE000C9453271A930A93E4ECF3E10E94A82B30
:10460E000E945F29EAEEF3E10E942A2900E0EA8186
:10461E000E1780F4AB81BC811C91E02FEA931A93A4
:10462E00E0E0EA93ADDFEB81FC813196EB83FC8316
:10463E000F5FEDCF4AC00E94EC2CEDEEF3E1FA9342
:10464E00EA93ED810E94212AEA850E94212AE22F17
:10465E000E94212A0E94892900E0EC810E1788F41D
:10466E00AD81BE811C91E22FE00FEA931A93E1E037
:10467E00EA9386DFED81FE813196ED83FE830F5F37
:10468E00ECCF0E944C310C947F271A930A93E4E2EC
:10469E00F4E10E94A82B0E945F29EAEEF3E10E944A
:1046AE002A2900E0EA810E1780F4E02FEA93E0E079
:1046BE00EA937FDF1E2FAB81BC811C93EB81FC81C3
:1046CE003196EB83FC830F5FEDCF19810881259620
:1046DE0008950E94EC2C00E0EC810E1788F4E22F76
:1046EE00E00FEA93E1E0EA9364DF1E2FAD81BE8115
:1046FE001C93ED81FE813196ED83FE830F5FECCF2F
:10470E000E944C310C947F270A93EDE4F2E00E9454
:10471E00F52C00E00C3008F5A5E00A9FF001EF56ED
:10472E00FD4F0F01A4E8B1E0EE27A00FBE1FEC91E4
:10473E00D001EC930E94742B71F0ADE4B2E00E94B4
:10474E00FA2C0E94492C39F4A5E00A9FF001E25799
:10475E00FD4F0E94012D0F5FDDCFE0914D02E093E2
:10476E0050020C944B260E94062DE2E4F4E10E94C6
:10477E00492B0E944E2B0E94922B0E94952B0E9439
:10478E00A32BE6E8F3E0FA93EA93E6E5F4E1FA9375
:10479E00EA93ED81FE810E94612B0E945E2CED81D9
:1047AE00FE81E0938203F0938303EB81FC81E0931F
:1047BE008403F09385030E940B2DE1E0EC93E881D6
:1047CE00A5E0EA9FF001E257FD4FAB81BC81A083CB
:1047DE00B183A0919201A83030F4E0919201EF5F85
:1047EE00E0939201E150E0919101EF5FE09391012E
:1047FE00E150A0919101E0919201EA1718F4E1E0E5
:10480E00E09391010E94062DE0E2EA93E09191017E
:10481E00EA9311DF0E94A1290E94B42C75DF0C943B
:10482E007F270E940B2DEC91E03019F4EFEF0C94E2
:10483E0059270E940B2DE0E0EC930E94A1290E94C3
:10484E00B42C62DFA881A73010F0AB3008F002C0A4
:10485E000E94AF290C945927E881E03019F4EFEF4C
:10486E000C9459270E94062DE0E2EA93EB81EA931D
:10487E0030DF0C945927E9E5F4E1FA93EA93E6E781
:10488E00F3E00E94612BE0918203F09183030E947A
:10489E00082AE0918403F09185030E94082AE6E835
:1048AE00F3E00E94612B0E94242B08951A930A9321
:1048BE0010919101E9E6F4E10E942A2901E0093004
:1048CE0050F41A931A95C8DFD6DF103011F41091F8
:1048DE0092010F5FF4CF099119910895A881AC3020
:1048EE0090F4E6E9F3E0FA93EA93EA81F0E00E94AD
:1048FE00312FEC50FD4FFA93EA930E94E728E6E938
:10490E00F3E00C945927E0E0F0E00C9459270E9454
:10491E00453116EA23E0E8E7F4E10E942A2900E097
:10492E000C3078F4EBE8F4E1FA93EA93A12FB22F6E
:10493E00EC910E94212A0E945F291F5F2F4F0F5F6B
:10494E00EFCFEFE8F4E10E942A290E944C31A4C275
:10495E000E94122D29F4D801E1E0EC93D90117C081
:10496E00E33031F4D801E5E0EC93D901E1E00FC07A
:10497E00E43031F4D801E3E0EC93D901E1E007C073
:10498E00E13019F4D901E1E002C0D901E0E0EC9385
:10499E00D901EC910E944B3165C20E94122DB1F4E7
:1049AE00D801EC91E03089F00E94212D71F4D901EB
:1049BE00EC91E03029F0E0E0EC93D801E5E004C0A2
:1049CE00D901E1E0EC93D801EC9336C0E330B9F4B1
:1049DE00D801EC91E03091F00E94212D79F4D901AB
:1049EE00EC91E03029F0E0E0EC93D801E1E005C075
:1049FE00D901E1E0EC93D801E5E0EC931DC0E43081
:104A0E0081F4D801EC91E03059F00E94212D41F44F
:104A1E00D901EC910E94592FEC93D801E3E0EC936D
:104A2E000BC0E13019F4D901E1E005C0D901E0E095
:104A3E00EC93AC81BD81EC93D901EC910E944B318A
:104A4E0011C2E091A603E23011F0E33091F4E0E000
:104A5E00E093A803E091A703E03051F00E94272DC8
:104A6E0021F0E1E0E093A80303C0E0E0E093A603A9
:104A7E0018C0E43089F4E091A703E03061F00E94A1
:104A8E00272D49F4E091A8030E94592FE093A80323
:104A9E00E3E0E093A70305C0E0E0E093A803E09312
:104AAE00A603E091BE01E03039F0E091A803E030BA
:104ABE0011F4969801C0969AE9EAF3E00E94312D1E
:104ACE0011F4DB9801C0DB9AECEAF3E00E94312D81
:104ADE0011F4C49801C0C49AEFEAF3E00E94312D9C
:104AEE0011F4DA9801C0DA9A0895E881E093A603EA
:104AFE00E23031F4E1E0E093A703E093A80313C0A2
:104B0E00E33029F4E1E0E093A803E5E00AC0E430E5
:104B1E0029F4E1E0E093A803E3E003C0E0E0E093D2
:104B2E00A803E093A703E091BE01E03039F0E091D5
:104B3E00A803E03011F4969801C0969A0C94592768
:104B4E00E881E093A903E9EAF3E00E94372D11F41E
:104B5E00DB9801C0DB9A0C945927E881E093AC03F3
:104B6E00ECEAF3E00E94372D11F4C49801C0C49A08
:104B7E000C945927E881E093AF03EFEAF3E00E942B
:104B8E00372D11F4DA9801C0DA9A0C945927A881BE
:104B9E00A43020F50E943D2DEF3F19F4E1E00C9476
:104BAE0059270E943D2DE03069F40E94452DE08189
:104BBE00E03029F40E94302AE0E00C945927E1E01D
:104BCE000C9459270E943D2DE13039F40E94452D59
:104BDE00A0E0A083E1E00C9459270EC00E943D2D69
:104BEE00EF3F31F4E8810E944A2DE0810C94592761
:104BFE000E943D2D0C94592755C10A9300E00730B1
:104C0E00D0F5EAE0E093D5020E94502D91F50A937B
:104C1E003DD00E94502D81F0AAE00A9FF001ED5484
:104C2E00FC4F60810E94582DA62FB0E0F0E0E7FD0A
:104C3E00FFEFEA17FB0709F414C0AAE00A9FF00180
:104C4E00ED54FC4FBF010E94582DDB01EC93AAE0FE
:104C5E000A9FF0010E945F2DE091D502E03049F0ED
:104C6E0007C0AAE00A9FF001EC54FC4FA1E0A0831C
:104C7E00CBCF0F5FC4CF08C00A9300E0073020F4FB
:104C8E000A9304D00F5FFACF0991089522970A93E1
:104C9E0000E00E94642DE654FC4FE081E983E0E0E1
:104CAE00EA83A981BA816D917C910E94642DE554AD
:104CBE00FC4FE081A1E00E94202FF0E06E237F23C5
:104CCE000E94642DE554FC4FE081DB010E94282FE9
:104CDE000E2F0E94642DEE54FC4FE081E030D9F48B
:104CEE000130C1F40E94642D0E945F2DEBB7EF736B
:104CFE00EBBF0E94642DEA54FC4F0E94F52C0E94DB
:104D0E00642DE854FC4F0E94012DEB810E944A2D28
:104D1E00A0E0A08358C0E130D9F40030C1F40E9465
:104D2E00642D0E945F2DEBB7EF73EBBF0E94642DD5
:104D3E00EA54FC4F0E94012D0E94642DE854FC4F52
:104D4E000E94F52CEB810E944A2DA1E0A0833BC06E
:104D5E00EF3FC9F5003029F40E94642DEA54FC4F50
:104D6E0004C00E94642DE854FC4FDF010E94FA2C0F
:104D7E000E94642DEA54FC4F0E94692D38F40E9463
:104D8E00642DE854FC4F0E94692DE8F00E94642DBA
:104D9E00EE54FC4FCF010E94642DEA54FC4F60810B
:104DAE0071810E94642DE854FC4FDF010E94043093
:104DBE00E617F70710F4E0E001C0E1E0DC01EC9348
:104DCE00EBB7E06CEBBF088124960895EA81E3709F
:104DDE00EA83E981E03019F0EA81E061EA83E88153
:104DEE00E03019F0EA81E068EA830E94702DE7E076
:104DFE000E94762D4CC00E94702DE0E00E94E32CA4
:104E0E000E947B2D0E940D2C0E94862DEA930E94FB
:104E1E000729AC81BD8123C00E94702DE0E0EA938A
:104E2E000E94102EE881EA930E9413290E94DD2C25
:104E3E000E9413290E94762D27C00E94702DE4E057
:104E4E000E94E32C0E947B2DAC81BD81EC93E1E0AE
:104E5E000E94862DEA930E940729A881B981EC93BE
:104E6E000E94EB2D269608950E94702DE4E00E947C
:104E7E00762DEA930E9413290E94DD2C0E9413299D
:104E8E00EA930E94102EE881EA930E941329EA9376
:104E9E000E94102E0E94EB2D239608955D9BFECF4F
:104EAE00E881ECB9219608951A930A93AC81BD81DD
:104EBE000E9404303097B9F0AA81BB810E94043061
:104ECE008F01309749F00230E0E01E0758F0F801EC
:104EDE0031978F01ED93FC93AC81BD810E94FA2C2A
:104EEE00AE81A08303C0EE81EA93D8DF19810881D9
:104EFE002796089526970E94423100E0EA89FB89A1
:104F0E003196EA8BFB8B3197E4913E2FE03011F412
:104F1E000C94AD28E02FE03039F4353211F401E075
:104F2E0002C00E94902D11C1E130A9F4353219F45E
:104F3E000E94902D09C102E050E010E03D3211F4C4
:104F4E0011E003C13B3211F45BE2FFC0303211F4C9
:104F5E0050E2FBC002C0E23039F440E003E03033EF
:104F6E0011F41068F2C004C0E33011F00C94AC28B8
:104F7E00303310F03A3308F009C0A42FEAE0EA9F6C
:104F8E00F0014E2FE32FE0534E0FDFC0E32FE33639
:104F9E0049F40E949B2DE889F989A481AA930E9465
:104FAE00A12DD2C0E33741F40E949B2D0E94AB2D60
:104FBE000E94F2280E2F0AC0E03761F40E949B2D4A
:104FCE000E94AB2D0E94FC280E2F186012601F77D6
:104FDE0020E035C0E43611F0E93611F4146002C059
:104FEE00E53731F4E4EBF3E0EE83FF8305E00DC02B
:104FFE00E83511F4186004C0E83711F00C94AB28B2
:10500E00EEEBF3E0EE83FF8304E012FF14C00E9488
:10501E009B2D0E94B52DAB85AA233AF4EA85FB851C
:10502E000E94142FEA87FB875DE2503011F00F5F6C
:10503E0001C01B7F04C00E949B2D0E94B52D10FD48
:10504E0011C0041778F417FF08C012FF04C01B7FAD
:10505E00352F015001C030E301C030E20E94902D87
:10506E004150EFCF202F11FF1AC02030B9F013FF9F
:10507E0008C0EE81FF813196EE83FF833197E49174
:10508E0005C0AE81BF81ED91AE83BF83EA930E94CE
:10509E00A12D403009F041502150E7CF4BC030E3F5
:1050AE00EE81FF810E940830E887F987EE81FF814B
:1050BE003296EE83FF83E885F985AA85BB85AE1708
:1050CE00BF0750F03F5FA885B985EA85FB85EA1BCF
:1050DE00FB0BEA87FB87EFCF3A3328F013FF02C0B2
:1050EE00395F01C0395D14FD1AC0313320F4A88533
:1050FE00B985119709F409C0421710F010FF01C0CD
:10510E0013C030E217FF0BC030E3106112FF07C06F
:10511E001B7F5A930E94A12D403009F041500E94EE
:10512E00902D403009F041502150A885B985129735
:10513E0008F0B5CF10FF08C0403031F04150E0E22A
:10514E00EA930E94A12DF8CF00E0D8CE0E944931FB
:10515E0064960895FF920E94BD2DDE0116960E9460
:10516E000B2F0E940430EA83FB830E94C62D0E94FF
:10517E00CB2DAA81BB81E0E0EC930AC0FF920E9486
:10518E00BD2DE0E0EA83EB830E94C62D0E94CB2D5D
:10519E00198108812496FF900895E991F99130972D
:1051AE001AF4E095F09531960895E991F991A99147
:1051BE00B991CD0161916D936623E1F7FC010895DC
:1051CE00E991F991A991B991CD0105900D92002027
:1051DE00E1F7FC010895A991B991EE27FF276D9192
:1051EE00662311F03196FBCF0895AA27BB27E991CC
:1051FE00F9910590002011F01196FBCFFD01089555
:10520E00E881E295EF70AE2FAA0FAA0FEA0FEE0F0C
:10521E00A991AF70EA0F0895A991EE27AA5012F046
:10522E00E05FFCCFA65FEA0F08950A921A92FA92F7
:10523E006A937A938A939A93AA93BA93EA93FA9378
:10524E00EFB7EA930895FA93EA9380E00E94C52897
:10525E0022960895E1E0EA930C94B425E0E0E09301
:10526E00B901E093BC010895E0E0EA930C94B425F3
:10527E00E091D201F091D3010895E8ECF0E0FA93B9
:10528E00EA930C94292EE0E0EA93E1E0EA93089584
:10529E00E0EFEA93EBEFF1E0FA93EA930C94852EAC
:1052AE00E0919301FF27662777270E940C3008951F
:1052BE0084E00E94C52826960895FA93EA930C94EA
:1052CE00292EE4E3F2E0FA93EA930895E7E0EA93F5
:1052DE000C944E1FE0E0EA930E94A725E0E0EA93CB
:1052EE000C947C25E0E0EA930C94C125C69A86EED8
:1052FE0090E00197F1F708950E943E0C8FE48A9595
:10530E00F1F708958CE00E94C5282E960895E3E0EB
:10531E00EA930E94CE25E0300895E2E0EA930E94DF
:10532E00CE25E0300895E4E0E09393010E94A518A5
:10533E00E8830895E0E6F1E0FA93EA930895FA938C
:10534E00EA93EA81FF27662777270E940C30B0CFB9
:10535E00E1E0EA930C947E19E1E0EA930C94171BBA
:10536E00AFE7B2E0E0916D01F0E0ED93FC930895AC
:10537E00E0917E01F0917F010895FA93EA930C94E7
:10538E00D428E0916102F09162020E944E2F08959E
:10539E00E43FA1E0FA07A0E06A07A0E07A070895CB
:1053AE00A4EFB1E080E090E00E940F2FE091BF01EA
:1053BE00F091C0010E944E2F0E948B2FDF01CB0176
:1053CE00E8EEF3E060E070E00E94CD2F6E2E0895BF
:1053DE00A0917502B0917602E62DF0E0AE17BF07F0
:1053EE000895FA93EA93E0917F02F09180020E9471
:1053FE004E2F0E940C300895E0917502F0917602C6
:10540E0008950E944E2F0E940C30089588E00E944D
:10541E00C5282A960895F0E0E7FDFFEFAECFEA9398
:10542E000E94CE25E030089523DF662777270E945D
:10543E000C300895FF27662777270E940C300895B9
:10544E00E091B801EF5FE093B801E150EA930C945C
:10545E009F1FE2E0EA930C947C25E091B801E150A5
:10546E00E093B8010C949420E1E0EA930C94C125EA
:10547E00E0917601F09177010895E5E7F2E0AFEF64
:10548E00B0E0A083B1830895A0917F02B091800215
:10549E00A736E0E0BE070895EFE7F2E0A6E6B0E03B
:1054AE00A083B1830895E0E0E093D201E093D301AD
:1054BE000895E3E0EA930C947C25E2E0EA930C94E1
:1054CE00B425E1E0EA930E94A725E4E0EA930C9468
:1054DE007C25E0E0F0E0FA93EA93E1E0F0E0FA9365
:1054EE00EA930895EA930E947524FA93EA93089535
:1054FE00FA93EA93E0E0EA9308950E9475246627F2
:10550E0077270E940C30D4CEE4E3F7E0FA93EA93C7
:10551E000895EA930E94BA23D4CFE5E0F0E0FA931F
:10552E00EA930895F0E0FA93EA930895EA930E94BD
:10553E00BA23E3E0EA930E94A725E4E0EA930E94EF
:10554E007C2592CEE0918201F0918301E093570287
:10555E00F09358020895F0E0ED93FC930895A9E8B6
:10556E00B2E0E091BB01F7CFE4E6F0E00E94A32F9A
:10557E000895E0917C01F0917D0108959F01A09125
:10558E006B02B0916C020A171B070895A091DD0201
:10559E00B091DE02EA0FFB1FE0937502F0937602E4
:1055AE000895A5E7B2E0E62DD6CFA0917502B09191
:1055BE007602A030E1E0BE070895A0916B02B09193
:1055CE006C020895FA93EA93E091DD02F091DE0207
:1055DE0018CFE0917002F091710213CFEAE0F0E083
:1055EE000E94A32F0ECF84E10E94C52866960895CF
:1055FE00E0915C02F0915D020895E0915702F09106
:10560E0058020895E091D901EF5FE093D901A0917E
:10561E00D901A5300895E0917F02F091800208959E
:10562E00E0937F02F0938002E0E0E093D9010895C9
:10563E00E0917A02F0917B02E4CE80E10E94C528CF
:10564E0062960895A0917F02B0918002E0916D0163
:10565E00F0E00895E0917001F091710108950E94BB
:10566E00862FDF01EFEFF0E00E94A32FCACEA091AC
:10567E00E102B091E2020895E885F985F8DFEA17B4
:10568E00FB070895FA93EA93E091CC01D3CEE09113
:10569E00CD01D0CEE091CE01CDCEA9E02A9FF00172
:1056AE00E550FE4FFA93EA930895E4E6F0E00E9487
:1056BE00D52F63CE662777270E940C3008950E945F
:1056CE00482F0E940C300895E9EFF4E0BCCDA6E01F
:1056DE00EA9FF001ED51FE4F0895A4E8B1E0EE27E8
:1056EE00A00FBE1FEC91E0300895FE013596FA939F
:1056FE00EA930895FA93EA9380E00E94B1282496E3
:10570E000895E0E0EA93EA930C94C60CE0E2F2E02E
:10571E00FA93EA930895E091D1018CCEE091D001F5
:10572E0089CE4A933A930E94D428DF01E4E6F0E052
:10573E0008950E94902FBECF80E10E94B1286496FA
:10574E000895FA93EA93EC8175CEA9E00A9FF001D1
:10575E00E550FE4FFA93EA930895B0E0A7FDBFEF30
:10576E00F0E00895FA93EA93E98564CEEA930E94F5
:10577E00761AE0300895E981A9E0EA9FF001E5503C
:10578E00FE4FFA93EA930895FA93EA930C949A1DB6
:10579E00EA93E1E0EA930C943D17EA93EBEBEA937C
:1057AE000C943D17F0E0BD010895E981A6E0EA9F53
:1057BE00F001E851FE4F0895E981A6E0EA9FF0015D
:1057CE00EA51FE4F0895DF010E940430DB01089577
:1057DE00EA930E947B2E00E00895FA93EA930C94CC
:1057EE00AF19FA93EA930E94D119E0300895EA8135
:1057FE00FB81FA93EA930895EA81FB81F2CFE8E404
:10580E00EA930E947B2EEFE0F0E057CDA881B9819C
:10581E00EC93E1E00895E02FA2E0EA9FF001E75F4C
:10582E001E2F0895EF5EFC4FBF01A3E00A9FF0010B
:10583E000895E091EE02F091EF020895B0E0EA17BC
:10584E00FB070895E091F302F091F4020895FA93A4
:10585E00EA93EFDFD6CDFA93EA93E091F802F09156
:10586E00F902CFCDE091FD02F091FE020895E09194
:10587E000203F09103030895A5E01A9FF001EF5E75
:10588E00FC4F0895A5E00A9FF001E257FD4FDF019E
:10589E000E94043030970895A5E0B0E00E945E2F7C
:1058AE000895E2EEF2E1FA93EA93F80103CF84E071
:1058BE000E94B12828960895FA93EA93F801FACE39
:1058CE0088E00E94B1282C960895EF85F88999CD2D
:1058DE00EA93E091CD02F091CE0256CFFA93EA937D
:1058EE00A091CD02B091CE020895DB01AE0FBF1F85
:1058FE001396EC91EA930C94150D0E944531E091AC
:10590E00CC02E0300895EA930E944E1FE1E0E0934E
:10591E00D4020895A091CD02B091CE02E22F42CFD3
:10592E000093D0021093D1020895E093D202F09327
:10593E00D3020895E091D202F091D3020895E3EEDE
:10594E00F2E0AAECB2E08BE00E9411300895E0E0A4
:10595E00E093D402E093BD010895E8E5EA930C9438
:10596E000123E0E0F0E0E1CFEA81AAE0EA02F001F3
:10597E00A091D202B091D302EA0FFB1FD6CFA09115
:10598E00D202B091D3020895EA81A4E6EA02F001B0
:10599E00F6CFEA0FFB1FC9CFEA81F0E0E7FDFFEF7C
:1059AE00F8CF0E940430FA93EA930895EA930E9486
:1059BE00102EE981EA930895EA930E94102E0C941A
:1059CE00DC2DE0E0EA930C94F52D0E944531EB813D
:1059DE00E150AC81EA9FF0012E2F0895A0E0B0E0D7
:1059EE00A083B1830895ED91FD913196FE93EE93D0
:1059FE0031970895A1E0B0E0A083B1830895E6E762
:105A0E00F3E0FA93EA930895A4E8B1E0E881F0E0B8
:105A1E00AE0FBF1F08950E944431EC81FD81319677
:105A2E008F01EC81FD8132969F01AC81BD81EC919D
:105A3E00E2300895D801EC91E150EC93E0300895F6
:105A4E00E091A703E150E093A703EF5FE091A70376
:105A5E00E0300895FA93EA930E94D424E03008953A
:105A6E00FA93EA930E94AF24E0300895E881AAE009
:105A7E00EA9FF001EE54FC4FE0810895E881F0E0DA
:105A8E00EA52FD4F0895AAE0EA9FF001ED54FC4F53
:105A9E000895AAE00A9FF001EE54FC4FE081EF3F1B
:105AAE000895AAE00A9FF001EE54FC4FE08108959C
:105ABE00EE54FC4FAFEFA0830895EB81AAE0EA9F6E
:105ACE00F0010895DF010E940430E436A0E0FA07E9
